:10000000C0A20520D93D000051C00000C53D000040
:10001000C53D0000C53D0000C53D0000C53D0000D8
:10002000000000000000000000000000353F00005C
:10003000C53D000000000000D53E0000C53D0000A9
:10004000C5400000C5400000C5400000C54000009C
:10005000C5400000C5400000C5400000C54000008C
:10006000C5400000C5400000C5400000C54000007C
:10007000C5400000C5400000C5400000C54000006C
:10008000C5400000C5400000C5400000C54000005C
:10009000C5400000C5400000C5400000C54000004C
:1000A000C5400000C5400000C5400000C54000003C
:1000B000C5400000C5400000C5400000C54000002C
:1000C000C5400000C5400000C5400000C54000001C
:1000D000C5400000C5400000C5400000C54000000C
:1000E000C5400000C5400000C5400000C5400000FC
:1000F000C5400000C5400000C5400000C5400000EC
:10010000C5400000C5400000C5400000C5400000DB
:10011000C5400000C5400000C5400000C5400000CB
:10012000C5400000C5400000C5400000C5400000BB
:10013000C5400000C5400000C5400000C5400000AB
:10014000C5400000C5400000C5400000C54000009B
:04015000C5400000A6
:1001540053B94AB9002908BF00281CBF4FF0FF312A
:100164004FF0FF3000F00CB8ADF1080C6DE904CE8F
:1001740000F010F8DDF804E0DDE9022304B0704774
:10018400704700BF034613F8012B002AFBD1181A4D
:10019400013870472DE9F04786468C460846089E8C
:1001A400154674461946002B40F0C1808542B2FAC8
:1001B40082F245D94AB1C2F1200300FA02FC95400B
:1001C40094402EFA03F343EA0C0C4FEA154EA8B2FE
:1001D400230CBCFBFEF80EFB18CC08FB00F943EA29
:1001E4000C43994528D9EB1808F1FF3704D29945F7
:1001F40002D9A8F102072B44A3EB0903A4B2B3FB71
:10020400FEFC0EFB1C330CFB00F044EA0344A0424A
:1002140014D92C190CF1FF3304D2A04202D9ACF149
:1002240002032C44241A43EA07401EB1D44000239D
:1002340034607360BDE8F0874746DDE76346F1E765
:1002440092BB431B01214FEA154EAFB2200CB3FB06
:10025400FEFC0EFB1C330CFB07F840EA03439845F5
:1002640061D9EB180CF1FF3004D2984502D9ACF1F6
:1002740002002B44A3EB0803A4B2B3FBFEFC0EFB69
:100284001C330CFB07F744EA0344A7424DD92C194D
:100294000CF1FF3304D2A74202D9ACF102032C447F
:1002A400E41B43EA0040C0E7C2F1200395409440B8
:1002B40020FA03F12EFA03F34FEA154E9040AFB241
:1002C4000343B1FBFEFC0EFB1C10190C0CFB07F8DE
:1002D40041EA0041884522D969180CF1FF3004D263
:1002E400884502D9ACF102002944A1EB08019BB274
:1002F400B1FBFEFC0EFB1C110CFB07F743EA0143A8
:100304009F420ED9EB180CF1FF3104D29F4202D95F
:10031400ACF102012B44DB1B41EA004193E7604648
:10032400E3E76146F7E76046A4E76346B8E783423C
:1003340006D916B9002108467CE7C6E900E0F9E7CA
:10034400B3FA83F78FB9834201D3724508D8BEEB61
:10035400020460EB030301209C461EB9002169E7F7
:100364003846FAE7C6E9004CF8E7C7F1200CBB4071
:100374000EFA07F522FA0CF42EFA0CF1BA401C43DB
:1003840020FA0CF3B8404FEA144901431FFA84FEE3
:10039400B3FBF9F809FB18300B0C08FB0EFA43EA1F
:1003A40000439A4540D9E31808F1FF3004D29A4536
:1003B40002D9A8F102002344A3EB0A0389B2B3FBD8
:1003C400F9F809FB183308FB0EFE41EA03418E4598
:1003D4002CD9611808F1FF3304D28E4502D9A8F153
:1003E4000203214443EA0040A1EB0E01A0FB029862
:1003F4004145CE46434602D306D14D4504D2013889
:10040400B9EB020E68EB0403002EA7D0B5EB0E0285
:1004140061EB030101FA0CFC22FA07F3F9404CEA00
:100424000303C6E9003199E74046C5E74346D9E7E7
:1004340030B53A4B3A4A85B0C2F80036C2F80436B1
:10044400C2F80836C2F80C36C2F81036C2F81436B0
:10045400C2F81836C2F81C3602F58052C2F80036CB
:10046400C2F80436C2F80836C2F80C36C2F81036A0
:10047400C2F81436C2F81836C2F81C3600F074F804
:1004840000F07AF858B14FF05023D3F800340BB190
:10049400DB0704D502F020FE224803F0ABFA01A8E2
:1004A40000F09EFF204B1B68834200D0FEE74FF410
:1004B4008031002006F0E8FD00B1FEE7012006F0DF
:1004C400C9FE69469DF808000AF0B9FC044608B163
:1004D4000BF029FE009A039B144D1344019A1289D0
:1004E40013442B6006F0B8FD01F0FCFD01F00CF89C
:1004F40000F0EEFF03F09EFC84F30B8884F30A887B
:100504002B681B6883F3088884F31488BFF36F8F08
:10051400BFF36F8F2B685B689847FEE73546526ED2
:100524000080015008F0000094270020902700204C
:1005340021B1012906D06FF015007047044B53F820
:1005440030007047024B03EBC0035868704700BF8C
:1005540010F0000004289ABF024B18566FF01500E3
:10056400704700BFC0F400004FF4C051014807F0C9
:10057400A3BB00BF0E47012073B50F4C20460DF0FE
:1005840007FFB8B12569A6682B680D2143F4005311
:100594002B6020463368094A98472046736801A9AE
:1005A400984720B92B6801985840C0F34030003870
:1005B40018BF012002B070BD84EB000011000100DF
:1005C4002DE9F04706460F4690461C46124DDFF8CB
:1005D4004CA0554511D30A2120460DF0C0FE02223D
:1005E40020460F490DF0AEFE082120460DF09DFE79
:1005F4000A2120460DF0BBFE0BE055F8049BB9F12F
:10060400000FE6D02346424639463046C8470828FC
:10061400DFD00020BDE8F08794FC000098FC0000C7
:10062400C5F4000037B51D4683883F2B2ED10378CF
:1006340003F00703022B29D1C4793CBB092001A98B
:1006440001F03CFA00281FDB0198214682680BF078
:100654009EFA044601980BF05AFA003C18BF012494
:100664000A2128460DF07BFE0222094928460DF096
:1006740069FE214628460DF058FE0A2128460DF051
:1006840076FE204603B030BD0124E9E70824F8E7EC
:10069400C5F400002DE9F04F9B46F7B0804B039062
:1006A40036A80E46DDE9817914461D680DF093F9EC
:1006B400002136A807F038FC3FB1B9F1000F04DD82
:1006C4004A46394636A80DF08FF94FF000083389B1
:1006D4007289D6F80CA013449A44C24563D80CA975
:1006E40036A80DF0C0F936A80DF079F9839B5BB1FB
:1006F4000CAF0DF1500C3A4603CA624518605960BC
:10070400174603F10803F6D100232246009331462D
:100714004FF6FF7306A80AF0B5FB8046002852D1B5
:10072400214603980B9E0AF06BFCB0424BD34FF06A
:10073400FF36DFF870A1DFF870910DF1120304AAFF
:1007440005A906A80AF0ECFB00283CDB40F0A180D8
:10075400059906A80AF030FC50B94FF6FF71BDF8B0
:100764001200524A32F8023B8B422CD09842F9D103
:10077400BDF81270102F30D0202F6CD0012FDCD197
:10078400BDF81030202B1ED82046059936AA0BF050
:10079400BFF90646B8B99DF810B0BBF1200F34D9A3
:1007A4004FF0FF36C9E7809BAAEB0809994528BF9B
:1007B40099465A464B46414620460BF0A9F928B1C2
:1007C40036A80DF00CF9364B1D6865E04A465946CB
:1007D40036A80DF009F9C8447FE7BDF81070202F42
:1007E400F1D13B462046059936AA0BF091F9002831
:1007F400E9D13A4636A90CA80AF0ECFBDAF8003045
:100804008342E0D14FF0010897E7D9F80030284F30
:100814000393039B9E42C3DA1CA80DF0DCF800216D
:100824001CA807F081FB7A681CA8126857F8081BFB
:100834000DF0DAF814A91CA80DF015F91CA80DF098
:10084400CEF85A4636A914A80EF005F900283FF44C
:1008540074AF0136DDE7731C3FF46FAFD9F8003095
:10086400B3429DDDBDF81030B3F5807FABD1204697
:10087400059936AA0BF04CF90028A4D1F6B23946F2
:10088400BDF81030009636AA0CA800F0A9F8054669
:1008940086E7B8F1000F96D0284677B0BDE8F08F10
:1008A400B82000209427002020F000006CF4000001
:1008B40024F000002DE9F04789461946464BADF572
:1008C400AE6D1E68DDF89035B3F5807F7ED1202AA9
:1008D4007CD15CAA07F0E0FA0446002876D19DF8A2
:1008E4006F32BC2B72D10DF19008DF274546019081
:1008F4000AA80DF070F800210AA807F015FB2022C1
:100904000DF24F210AA80DF06FF804220AA80DEB8E
:1009140002010DF069F802A90AA80DF0A4F80AA8CA
:100924000DF05DF8202FBA46A8BF4FF0200A9DF8BD
:10093400073040460133524602A9A7EB0A078DF857
:1009440007300EF059F8002FD044D1DCAC462946CC
:10095400DF225CAB087813F8017B013A80EA0700D8
:1009640001F8010BF6D12B7803F07F032B701CF8F0
:10097400017B5FBB0134BE2CF9D195F8BE30012B4D
:1009840024D10AA80DF027F839460AA807F0CCFAB2
:10099400082212490AA80DF027F8494620220AA87D
:1009A4000DF022F820220DF24F110AA80DF01CF8C8
:1009B40002A90AA80DF057F80AA80DF010F8202291
:1009C4000DF24F2102A80AF005FB064630460DF54C
:1009D400AE6DBDE8F08700BFB8200020C8F4000069
:1009E4002DE9F04F1F46A3B02F4B804604A89DF875
:1009F400B0501E68894692460CF0AEFF09220121D0
:100A040004A807F00BFA294B03AA53F8354003EB6B
:100A1400C5035B6802941B6802A81C44214630236A
:100A24000CF081F8002838D1DDE9023213449C42ED
:100A340033D1214606AA02A80CF089F868BB0DF14F
:100A4400200B5A46214602A80CF081F8054620BB2B
:100A540006A80CF02EFC029B05909C421DD12B464F
:100A64002A46CDE9005B06A904A80CF032FFA0B920
:100A740004A807F0EBF980B906A80CF01AFC05905D
:100A840004A80CF06DFF874207D153464A464146FD
:100A9400009704A8FFF70EFF064604A80CF062FFB7
:100AA400304623B0BDE8F08FB820002024F00000C9
:100AB4002DE9F74F98468368074699428A461446BB
:100AC40059D25B1A934256D3B8F1000F43D06A4609
:100AD4000AF0BDF9002850DB013CDDF80090A24487
:100AE400274D284C284E6A46514638460AF0AFF93D
:100AF400002842DBDDE900BA3846524659460BF07D
:100B040031F8002839DBC5F80046C5F80446C5F8B5
:100B14000846C5F80C46C5F81046C5F81446C5F88D
:100B24001846C5F81C46C6F80046C6F80446C6F87A
:100B34000846C6F80C46C6F81046C6F81446C6F869
:100B44001846C6F81C46B8F1000F0ED0D94514D289
:100B54000BF1FF3AC7E7511E51446A460AF077F990
:100B640000280ADBDDF80090BAE7DA44CA4504D865
:100B74000AF1010AB7E74FF0FF3003B0BDE8F08F88
:100B8400008001503546526E00900150034637B53F
:100B94004FF40062084693F8B8401349019262008A
:100BA40051F82250A8420ED1582101FB043201FB16
:100BB4000434526A283401A90BF029F808B9019BBE
:100BC400236003B030BD013251F82220904208D195
:100BD400582101FB043201FB0433126D03F1540468
:100BE400E9E70120EDE700BF2CF0000070B590F8B4
:100BF400B850104E6D0056F825100446FFF7C6FF96
:100C040098B9013556F825102046FFF7BFFF054671
:100C140068B9582294F8B83002FB0343186A0AF002
:100C2400C6FFC4F8B400284670BD0125FBE70925BA
:100C3400F9E700BF2CF000002DE9F04F4FF02C082D
:100C4400582508FB01F890F8B890044605FB098381
:100C540003441F6A0E4687B00FB90BF064FA384696
:100C64000AF0ACFF024694F8B80015FB0085254451
:100C74006B1E033513F8011F914241D19D42F9D1F6
:100C84003B4B1D68284607B0BDE8F08F394B1D6803
:100C9400394B1B68AB4206D0002EF1D001213846F7
:100CA4000AF06AFAECE7582294F8B8305343E21891
:100CB400D16C8F42E6D1D2F82080002205922C22FA
:100CC40002FB0633234419890423384605AA194430
:100CD4000AF01EFF0028D3D194F8B830012B0BD0B2
:100CE400002BCFD1D8E9012313440599914201D3B4
:100CF4009942C7D93146D2E74FF082731F4AF4E7CD
:100D04004FF0580B2C220BFB09F302FB0633E518BA
:100D14002969CA06B4D4E258194B9A42B6D1EB6891
:100D24002A89D218B2D26B899B18AFD2BA6893427F
:100D3400ACD240F60C6A11EA0A0AA7D1314606F091
:100D440093FA05460F4B1B689842A1D14FF4807368
:100D540009FB0B8100933A462046CDE902AA0A4BCF
:100D6400CDF804A02144FFF795FC054690E700BFA9
:100D7400B4200020B820002094270020008800011F
:100D84003DB8F396B02000200E5F01202DE9F84F06
:100D9400884691469A460026DFF88CB0234D244CB1
:100DA4000B9B9E4201D300200FE00B9B40469F1BF0
:100DB400B7F5806F28BF4FF480671B4A3B4606EBAC
:100DC4000A010AF0A5FE10B10120BDE8F88F0A99C6
:100DD4003B465A46484671180AF0AFFE0028F3D144
:100DE400144BC5F800463E44C5F80446C5F8084609
:100DF400C5F80C46C5F81046C5F81446C5F818469B
:100E0400C5F81C46C3F80046C3F80446C3F80846B0
:100E1400C3F80C46C3F81046C3F81446C3F8184682
:100E2400C3F81C46BCE700BF98270020008001508F
:100E34003546526E009001502DE9F04F00250446CE
:100E44000E46A8465827DFF81892DFF818A295B086
:100E5400012D84F8B8501DD90025834F17F8011BC4
:100E640001290CD12846FFF763FB0EA9C0B200F09C
:100E740025FE014618B90E9882680AF073FE002D0B
:100E840000F0E180B8F1000F00F0558100232C2719
:100E94005825E0E0631993F8B910002964D107FBE1
:100EA400054209EB8533536203F500432846136575
:100EB400FFF73EFB94F8B810C0B207FB01412031A4
:100EC40000F0FCFD60B901212846FFF731FB94F8DE
:100ED400B810C0B207FB01414C3100F0EFFD08B17E
:100EE4000BF021F92046FFF781FEA8BB0021204624
:100EF4000AF0FBF8002840F09F8020460AF085F9AC
:100F0400002807DD012294F8B8300AF833200AEBF0
:100F1400C303586020460AF034F9002800F08C809E
:100F24000AA80AF00BF90AF012F9054608BB94F86E
:100F3400B830002BD4D094F8B020042A04BF012286
:100F440084F8B020012BCBD094F8B130042BC7D156
:100F5400012384F8B130C3E7012294F8B8309042F9
:100F6400234483F8B020C1D194F8B8500135EDB2D0
:100F74006EE79DF82FB0BBF1010F36D1582294F8DB
:100F8400B83002FB03430022D96A0E92374AD86C68
:100F9400914213D1998E04230EAA19440AF0B8FD84
:100FA40038B14FF0050B94F8B830234483F8B0B04F
:100FB40029E0022194F8B8302B4AD15494F8B800AF
:100FC40006F0FEF9831E022B8346ECD8012120464D
:100FD400FFF732FE264B1B689842E4D0254B1B6872
:100FE4009842DED14FF0010BDDE701212046FFF7E7
:100FF40023FE1F4B1B68984294F8B8302344D5D085
:10100400052283F8B02094F8B8306BB1E21892F856
:10101400B020012AA8D0042A0CD094F8B020042AC5
:1010240002D1012284F8B020234493F8B030023B6B
:10103400022B99D8A84697E7012294F8B8302344A4
:1010440083F8B02090E7012508E7E21892F8B91078
:1010540091B10133DBB2012B84F8B830F5D96AE0E1
:10106400982B0020982B01200E6001203DB8F396A8
:1010740094270020B420002092F8B01001F0FB0166
:10108400013918BF0121794305FB03122244D2F828
:101094002080B8F1000F3FF423AF03FB05110123B7
:1010A40042460093214440230EA809F0EBFE002899
:1010B4005DD100230DF1160206A90EA809F030FF38
:1010C400002838DB50D1BDF816300C2B51D14046E6
:1010D400069907AA0AF01CFD68BB9DF81C30012B79
:1010E40029D8E21892F8B0206B43023A022A8CBF46
:1010F4000022012207FB02332344197D9DF820209E
:101104009142D6D80AD3597D9DF821209142D0D856
:1011140004D3DA8ABDF822309A42CAD294F8B8309D
:10112400234493F8B020012A1CD0023A012A02D8A1
:10113400012283F8B02000254FF0580A012D84F8CD
:10114400B8501BD90023DFF88C82A34DA34F0E9314
:10115400012B84F8B83040F2E7800E9A022A00F09E
:101164001881FEE70422E4E794F8B83071E7032815
:10117400E1D140F20113A4F8B030DCE7621992F82F
:10118400B970002F40F0C5800AA809F0D7FF92F883
:10119400B030042B8DF82F3008D8012B08D800F07C
:1011A400B0804FF0FF3382F8B030AAE0052BF6E7A9
:1011B4000AFB0543194628462C31DA6C0BF0F5FB83
:1011C4000128014640F0AD8020460EAA0E9709F092
:1011D4001AFF054600287FF483AE94F8B8300AFB62
:1011E40003431F6A002F3FF47BAED3F84C80B8F161
:1011F400000F3FF475AE81464FF0580B9B6A029383
:10120400029B4B451BD094F8B83029460BFB034393
:101214005B6A384603EBC9035A6800230392FFF75D
:1012240047FC00287FF45CAE039A0E9B15449D4254
:1012340074D3D4F8B450B3FBF5F305FB0355D4F8D9
:10124400B40009F0C9FE582394F8B82003FB024205
:10125400536A926A1968013A03EBC2030022D3F875
:1012640004E09C4672449042A3F10803F7D8DCF8EA
:1012740000000023411A3846FFF71AFC03460028F1
:101284007FF42EAECDE900053A4641462046FFF7ED
:101294007DFD00287FF424AE384606F019F80028B6
:1012A4007FF41EAE582794F8B8002A4607FB004383
:1012B400196A0BF088FB034600287FF411AE94F8FA
:1012C400B820014607FB0242126D4046526809F0FD
:1012D4004BFF034600287FF403AE94F8B82007FBC5
:1012E4000242D2E91402013A50F83250016800EB8C
:1012F400C2077A684046691A09F036FF00287FF46D
:10130400EFAD94F8B830234493F8B030FF2B3FF49A
:10131400E7AD94F8B8500135EDB20FE709F10109D2
:101324006EE70028EDD0DBE5234493F8B9208DF86F
:101334001C209DF81C2002F0FF013AB10E9B0133E2
:101344000E9394F8B8300133DBB201E793F8B03070
:10135400012B0CD0204609F0C8FE40B1D8F800504B
:10136400204609F0A4FE284615B0BDE8F08F002100
:101374002046FFF761FC2B688342EFD1D8F80020A8
:101384009A42EBD03A689A42D8D1E7E784F8B82079
:101394001CE094F8B93023B194F8BA30002BF5D19D
:1013A4000123582505FB034284F8B830106A09F07C
:1013B4004CFD307194F8B83005FB03431B6A5B683D
:1013C400B36094F8B83003FB05453560024B1D68E3
:1013D400C6E700BFB820002094270020B4200020D6
:1013E400054B10B5BC220446002118460DF02BFB1A
:1013F4002146FFF721FD10BDA82B01202DE9F8435C
:101404002F4F3B7883B93C7A74B92E4DDFF8B880FE
:10141400012C85F8B8400AD92A4809F048FEBC22B4
:10142400002128480DF00FFB2548BDE8F883582615
:1014340006FB045208EB843300215362204603F573
:1014440000431365FFF774F895F8B810C0B206FBB3
:101454000151203100F032FB08B10AF064FE012191
:101464002046FFF765F895F8B810C0B206FB0151A5
:101474004C3100F023FB0028EFD195F8B860DFF879
:101484004C907600284659F82610FFF77FFB88B960
:101494000136284659F82610FFF778FB50B928463C
:1014A40009F0B3FE0028C1BF012307F8343007EB6D
:1014B400C404606095F8B8400134E4B2A8E700BF02
:1014C400982B0120A82B0120982B00202CF0000041
:1014D400BFF36F8F72B600234FF0FF30094A03F158
:1014E40020010133102B42F82100F8D100234FF0E2
:1014F400FF30044A03F160010133102B42F821004C
:10150400F8D1704700E100E04FF0FF3301212DE9ED
:10151400F04300253D4A3E4E51603E4FC2F84833E9
:10152400DFF8F480C2F8083302F58052516085B0C8
:10153400C2F84833C2F808334FF0FF3956F8044B69
:1015440044F30730C4F8089302F012FD01236360EA
:1015540000236846C4F84C31D4F84C21C4F8103147
:10156400D4F81021C4F84431D4F84421C4F8003527
:10157400D4F80C25DFF8A4C00092D4F81425019205
:10158400D4F808250292D4F81025C4F80C950392D7
:10159400C4F81495C4F80895C4F8109550F8042BB1
:1015A400511C0FD002F01F01520928D0012A28D162
:1015B400624602EB8102D2F80012394041F0020186
:1015C400C2F800120133042BE8D180220021A018B4
:1015D4000DF039FA8022002104F5C0700DF033FAC1
:1015E4005DB14FF0FF330E4AC2F808354FF0502278
:1015F400C2F8083305B0BDE8F08301259CE74246F4
:10160400D7E70023803153F82130FFDE004001503A
:1016140040F00000F0F0FCFF0025845000288450C6
:101624000070015080B505460E461746984608F0EE
:1016340005FE03460DF042FA0446DFF818904246D0
:1016440049F8003039463046A84754F8090002F0FA
:1016540029FC00BF080000002DE9F043079D15B9DF
:101664001560002012E00324B5FBF4F404EB4407F6
:10167400BD4218BF0134B4F1804F09D2A400013433
:101684008C4200D838B96FF00B001460BDE8F083C9
:101694004FF0FF34F7E704460021DFF8B4E0B94225
:1016A40003F1030C04F104062BD3A942274623D2E9
:1016B40001F1010CAC451F7828BF002324494FEAEF
:1016C400A70E38BF5B7811F80EE0AC4584F800E053
:1016D40001EB131E2EBF3D239B0003F03C034FEA96
:1016E400071738BFCB5C07F030071EF80770A370EC
:1016F4003D2367703746E3700023381A10603B704F
:10170400AFE71CF8034C1CF8023C4FEAA4091EF88E
:10171400099024011CF8018C04F0300406F8049CA0
:101724000EEB131919F804409B0006F8034C03F060
:101734003C030EEB9814E35C08F03F0806F8023C07
:101744001EF80830344606F8013C03316346A6E728
:101754005EF600002DE9F04300273C463D46DDF8E7
:101764001CE0DFF8288175451FD3E4BB002014601A
:10177400BDE8F0830136764533D013F806C0BCF1DA
:10178400200FF7D0AEEB0609B9F1010FA6EB050562
:101794000DD0BCF10D0F0AD103EB060999F80190A5
:1017A400B9F10A0F6ED1751CDDE72E46E3E7BCF1F3
:1017B4000A0FF8D02DB9BCF13D0F05D10137022F26
:1017C4000DD96FF01500D3E71CF0800FF9D118F88C
:1017D4000C507F2DF5D03F2D01D8002FF1D10134CD
:1017E400E1E73546C1E74FF0060C04F00706E408CC
:1017F4000CFB06F60CFB04F40736E41B04EBD604DE
:1018040070B18C420CD80027014603263C46DFF811
:101814007CE0DFF87C801D449D4205D10C1AA5E7CD
:101824006FF00B001460A3E713F8019BA9F10A0CF5
:101834005FFA8CFCBCF1160F04D848FA0CFC1CF0BF
:10184400010FE9D01EF809C00134BCF1400F08BFF4
:10185400013E0CF03F0C042C4CEA8717DCD17EB11E
:101864003C0C012E0C7002D101310024D4E7022E6D
:101874004FEA17244C7016BF8F7002310331F4E71E
:101884003446C9E7002DA2D09BE700BFDEF5000077
:10189400F6FFBFFF2DE9F047058B04462807904665
:1018A40011D4022905F0070540F0CC80204609F048
:1018B40079FF78B10138218B042811D8DFE800F0D2
:1018C400C2106D85950001290CBF45F0100545F047
:1018D4002005258388F31188BFF36F8FBDE8F08757
:1018E40001F0070AAA4500F0A5800027B9463E4644
:1018F400A368002B00F0BC8041F00801218388F329
:101904001188BFF36F8FA168002900F0BA800D68B9
:10191400002900F0B680334652462046D1F80480B0
:10192400C047002D76D02B6829461D46F0E701F00C
:1019340007035A1F012A1BD8002221F00701062B96
:10194400276889B2C4E9002209D13B4603E0628BCF
:10195400013262831B68002BF9D141F00201204659
:10196400218309F01FFF00287AD041F0200176E09E
:10197400042B0AD121F0070189B22046218309F002
:1019840011FF10B141F020012183218B01F0070ADE
:10199400AA454FD00027B946AAE7236921F00701D9
:1019A40041F00601062DD3F8009021832DD1B9F121
:1019B400000F3FD041F00801218388F31188BFF361
:1019C4006F8F20463949C84729E021F00701236970
:1019D40041F0040189B2042DD3F804902183E6D0A8
:1019E40000274FF0040A3E4682E721F007012369ED
:1019F40041F0050189B2052DD3F808902183D6D092
:101A040000274FF0050A3E4672E700274FF0060A0A
:101A14003E466DE72B4687E7B9F1000FD1D1EFF3CE
:101A24001188202383F31288BFF36F8F238B23F055
:101A340008032383258BEA062ED525F01003238380
:101A440005F007056669218B002EBFF670AF0023F1
:101A54002768C4E9003321F0070141F00101218323
:101A6400218B4FF0000901F0070AAA457FF440AF2B
:101A7400002F9CD041F00801218388F31188BFF323
:101A84006F8F002FC8D03D683946334652462046F2
:101A940009F0B4FE2F46F4E7AB067FF51BAF25F043
:101AA4002003238305F0070500E700BF2DB80000DD
:101AB400014B03600020704748F0000070B5104BE4
:101AC4000D461C68B4B10F4B196800238B4202DB2E
:101AD4006FF0010070BD224612F8106B864202D0EE
:101AE40014460133F2E7E0680CF052FC28B1002000
:101AF4002C60EFE76FF00C00ECE76FF01200E9E701
:101B0400FC20002048F0000010B5436888B0029320
:101B140083680C46CDE9033200230A68C068CDE926
:101B24000623054901AA05930AF050FC079808B951
:101B3400059B236008B010BDCFBB0000F0B40D4B73
:101B44000D4E5F6A0D4BB34203D36FF08500F0BCBA
:101B540070475C68BC420AD31D6945B194F802C061
:101B64008488E4B2A44502D12B46F0BC1847243340
:101B7400E9E700BF642C012008240020E4230020AE
:101B84002DE9F04705460E461746134CDFF84C8006
:101B9400DFF84C90444503D36FF08500BDE8F0872F
:101BA4006268D9F824309A4213D3A3698BB1A98807
:101BB4009078C9B2884205D13A4631462846BDE8F4
:101BC400F04718475279012A03D13A46314628464C
:101BD40098472434DEE700BFE423002008240020D3
:101BE400642C01202DE9F04105460E4617460A4CA7
:101BF400DFF82880444502D36FF0850009E063696B
:101C04000BB92434F6E73A4631462846984700286B
:101C1400F7D1BDE8F08100BFE423002008240020B0
:101C240010B504460AF0CAFA10F1780F00D050B982
:101C340020460AF005F8044AD2F8C43023EA000327
:101C44000020C2F8C43010BD642C01200022024BD5
:101C54001A605A60704700BF1F2D012070B50B4BEE
:101C64000B4CA34201D3002070BD0022196A1E7FD1
:101C74000439D5B2AE4201D82433F2E7013211F867
:101C840032508542F5D10120EEE700BFE423002065
:101C94000824002073B584880D46E4B263068DF8E9
:101CA400074007D02046FFF7D9FF78B10D4B93F8D2
:101CB400BA0058B120460B4E55B103F02BF9F36925
:101CC4001BB108200DF107019847012002B070BD37
:101CD40003F048F9F369002BF7D009200DF107014F
:101CE400F2E700BF642C012008B509480378C3F368
:101CF40041130A3350F823303BB100F1080200F1DC
:101D040010019847C043C00F08BD1846FCE700BF48
:101D1400642C012004282DE9F14F04460F46DFF816
:101D2400949016D001282DD1DFF88C8098F8B93022
:101D340043B300F0DFFD214D4D4520D24FF0000AA2
:101D4400D5F820B02B7F5FFA8AF6B34204D8243545
:101D5400F2E7FFF77BFFE7E70BEBC60630790AF003
:101D64002DFA0246307909F06BFFD8F8C430002A06
:101D740023EA0003C8F8C4300AF1010AE2DA0023B6
:101D840088F8B9300D4D4D4508D30B4B1B6A6BB128
:101D94003946204601B0BDE8F04F1847EB681BB147
:101DA4003A462146284698472435ECE701B0BDE879
:101DB400F08F00BF08240020642C0120E4230020BD
:101DC40073B586781E4C8DF800600379427943EA36
:101DD4000223ADF80230C378304603F003038DF8D4
:101DE400043009F02DFFD4F8C430054618420BD056
:101DF400304600F061FD3046FFF712FF0CF071FC35
:101E040010B9962008F0D8F9684603F05FF810F18D
:101E1400780F03D010B1002002B070BD9DF800000F
:101E240003F0DCF810F1780F01D00028F3D1012081
:101E3400D4F8C43084F8B9002B43C4F8C430EBE7B9
:101E4400642C01202DE9F047A44D0446AB690E46ED
:101E54001746C3B9207800F01F00012877D0022864
:101E640000F0DE8000BB94F900103A680029637822
:101E74002EDA062B0CD0082B25D0ABB953700123D6
:101E84001370022306E198470028E3D100200DE0F7
:101E94006388190A0A1F012A8C4605D9072903D821
:101EA400DAB26B6A1C781CB96FF01500BDE8F087D4
:101EB4005D78654503D1824200F0E7800130234418
:101EC400F0E71B78E6E095F8BA3013700123E1E0FF
:101ED400052B11D0092BE7D163886E6A002B33D10F
:101EE400FFF7B4FE638885F8BA30EB69002BCDD0D8
:101EF40003207B499847C9E76088C0B202F0D4FF49
:101F04000028C3D0D0E77378042B10D0052B11D050
:101F1400022B04D177796388BB4208BF0120337850
:101F24001E443378002BEED10028BDD0D8E796F8B4
:101F34000380F4E76388BB42F1D1B8F1000FEED11E
:101F44003046FFF73DFFEAE7FF27B846E9E795F893
:101F5400BA30D7F800C0002BA6D06F6AA2883B46DF
:101F64005FFA82FE187800289ED05978022904D19D
:101F740093F80480F04500F28F800344F2E78CF874
:101F840000308CF80130316080E71F4490E00B2B67
:101F94008AD100264FF0FF08B246C14606E07B789E
:101FA400042B0FD0052B21D03B781F443B78002B0A
:101FB400F5D1EB6913B1514607209847002E7FF401
:101FC40065AF71E797F80280A38897F80390984566
:101FD400EAD163889945E7D1B8F1070F1DD805EB1D
:101FE4000803BA46012683F8BB90DDE7A38843457E
:101FF400DAD16388DBB24B450AD0BE78304600F0B4
:102004005BFC3046FFF70CFEB0FA80F67609CBE7AE
:102014003846FFF7D5FE0646C6E7BA460026C3E7AC
:1020240094F900206378002A19DA002B7FF43CAF7E
:10203400A3883F68DCB25B060AD02046FFF70EFE99
:1020440000283FF431AF95F8BA30002B3FF42CAFA1
:102054003946204602F0A6FF00237B7011E7012BCE
:1020640008D0032B7FF420AF6388002B7FF41CAFD0
:10207400012103E0618800297FF416AF2046FFF7B1
:1020840009FE00287FF402AF0EE702293B607FF4CB
:1020940018AF5B883360F9E694F900006378002890
:1020A400BFF675AF002B3FF46AAF0A2B7FF4FCAE8A
:1020B4003B78002B3FF4F8AE797804297FF465AFC0
:1020C400B9788A427FF461AF072A8EBF0023521980
:1020D40092F8BB308CF80030F8E600BF642C012085
:1020E4001E2D012070B5164D95F8B830FBB102F0E5
:1020F400BBFE002822DB00F0FDFB0024D5F8C43031
:10210400E6B2E340DA0714D4D5F8C43004F110027F
:10211400D340DB0705D546F08000FFF781FD00289A
:102124000CDB0134102CE9D1002385F8B8300020F1
:1021340004E03046FFF774FD0028E5DA70BD00BF07
:10214400642C012013B5164C237DF3B9E26801AB6E
:102154008020A168019209F082FD019AA3681344CA
:10216400A360E3689B1AE3606BB962B12369E288F8
:102174009A4208DD94F8C82093FBF2F102FB113374
:102184000BB90123237502B010BD002380201A4629
:102194001946237502B0BDE8104002F049BF00BFE4
:1021A400642C0120002330B585B002460D4601930E
:1021B400002858D1002935D108220B460DEB020125
:1021C4000AF015F8002804DA802002F0A3FE05B016
:1021D40030BD2A4C029AC4E903552260039ABDF823
:1021E4000E30626004F13802A2609DF90820257562
:1021F400002A0ADB802B04D9802002F08BFE002009
:10220400E3E713B1C4E90333E1E7FFF76DFD002809
:10221400DAD0E28823699A42D4BFE260E360FFF730
:1022240091FFD4E7154C01ABD4E90215002D04DC71
:1022340009F0DDFF0028CADAC6E72A4609F0D7FF0D
:102244000028D9DB019AA3681344A360E3689B1AAE
:10225400E360002BBBD104F13803A360FFF744FD16
:102264000028DCD1B0E78028B1D1044BDA68002A19
:10227400D5D11B7D002BD2D1A9E700BF642C01204E
:10228400054B064A58629A62054A0020DA62054AFA
:102294001A63054A9A617047642C0120491E0000A4
:1022A400411B0000E91B0000851B00002DE9F341E0
:1022B4000446474D4FF0FF334FF0FF32454807F0D7
:1022C4004BFA95F8B830002B7BD16B6A83B1424846
:1022D4002C62E8616E6A02F0C5FF02F093FD041EF1
:1022E40010DA3C4807F0B0FA204602B0BDE8F081AD
:1022F40000F0BEF8FFF7C4FF6B6A002BE7D14FF084
:10230400FF34EEE700F018FB041EEADB7378012BC0
:102314005AD1F379002B57D00026684685F8C83087
:10232400ADF802308DF804608DF8006002F0CEFD47
:10233400041ED6DB802768468DF8007002F0C6FDC7
:10234400041ECEDB3046254902F078FF041EC8DBAC
:102354003846224902F072FF041EC2DB204CDFF82B
:10236400848044451AD3002002F038FE041EB8DBF2
:10237400D5F8C430802043F00103C5F8C43002F01E
:102384002DFE041EADDBD5F8C430002443F48033A5
:10239400C5F8C430012385F8B830A2E70026276ABF
:1023A400227FF3B29A4201D82434DAE707EBC3025E
:1023B40057F83310107902F041FF01360028EFD0AE
:1023C4009DE76FF077048CE76FF0150489E700BF91
:1023D400642C0120CC220020191D0000A92100003A
:1023E400E42300200824002030B51F4B8BB005AA3D
:1023F40003F11005144618685968083303C4AB4246
:102404002246F7D11B7810222370002101A80CF07A
:102414001AFB1222002115480CF015FB102101A80B
:102424000AF000F900281BDD0828B8BF082001AB1A
:1024340009381A1800200D4912F8013F0AAC04EBC0
:10244400131403F00F0328336B4414F8144C13F8DB
:10245400143C013008280C704B7001F10201EBD1DF
:1024640002480BB030BD00BF9EF600001160012091
:102474002DE9F04F714B87B093F800B0BBF1000F1A
:1024840003D06F4807B0BDE8F08F6D4C00264FF0C5
:10249400011AB0463546B14623783BB9694B02343C
:1024A4009C42F3D10123654A1370EAE76378052B54
:1024B4001BD8DFE803F08C03C18C1D39402304A82A
:1024C4008DF810B0ADF812308DF814B009F061FE3B
:1024D40040B1082304A8ADF8123009F05AFE08B13F
:1024E400ADF812B0BDF81230E37123781C44D3E781
:1024F400E378002BF9D1A3786BB108F101085FFAF6
:1025040088F8F2E76B689C4207D024354E4B9D4215
:10251400F8D30020B6E74D4DF8E7AB68002BECD0BC
:10252400414620469847E8E7002DF2D000222B7F51
:102534009A42EED2296AA07801EBC2010B79984243
:1025440001D00132F3E70127E078FBB200F0030089
:102554008DF81400207994F805C040EA0C20ADF8F9
:10256400120094F90200002826DA4FF0010C07F15A
:1025740010000CFA00F010EA0A0F24D143F0800096
:102584008DF8100004A8CDE90213019209F001FEB0
:10259400DDE90121039BB0B99DF8102012F0800FF2
:1025A400A2700A714FF001021DBF1033DBB29A40D2
:1025B400BA404AEA020A98E70120B84010EA0A0F32
:1025C40001D11846DCE70137102FBDD1B9E7032E3E
:1025D4001AD1FFF709FF074650B1FDF7D3FD0246B4
:1025E40030B11028A8BF10223946A01C0CF004FA00
:1025F4006FF002012378091BE21804EB5303D14264
:1026040013D50136F6B270E7002EF1D1B9F1000FFF
:102614003FF47FAFA4EB090389F80230C3F3072327
:1026240089F8033089F80480EBE702F801BC13F859
:10263400010902F8020DE2E7A14656E71060012005
:1026440000230020E123002008240020E4230020AC
:10265400094B00211A4610B51C78844204D15C68E9
:1026640014B102EB811010BD0131042903F14003C0
:10267400F2D10020F7E700BF302D01202DE9F3410E
:1026840050F8283C0446103310F82C6C0AD1036926
:1026940050F8202C980736D5D2B9590715D5002300
:1026A40044F8283C54F8283C10330BD054E90775FF
:1026B40054F8148C0CF015F800284FD021462E48FD
:1026C4000BF0F3FF02B0BDE8F08143F00403236193
:1026D400304654F8241C01AB09F0C1FA10B16FF074
:1026E4001503DDE7019A54F8243C134444F8243CD0
:1026F40054F8203C9B1A44F8203C54F81C3C1344E6
:1027040044F81C3CCEE7304654F8241C01AB02F0DC
:102714000BFD0028E3D1019D54F8243C2B4444F8DC
:10272400243C54F8203C5B1B44F8203C54F81C3CEB
:102734002B4444F81C3C002DB1D0304602F098FDE7
:10274400B5FBF0F303FB1055002DA8D154F8203C41
:10275400002BA4D0304602F02FFDA3E744F8180C58
:10276400A4F1100007F0F2F8002DABD04246394630
:102774003046A847A6E700BF082400204B1E012BC3
:1027840073B506460D460FD8FFF762FF044668B9D5
:10279400012D09D101AB012230460DF1030102F0F4
:1027A400C3FC019B002BF5D102B070BD0BF099FF67
:1027B40004F12C0108B1012D05D1084602B0BDE891
:1027C4007040FFF75BBF034802B0BDE870400BF0F8
:1027D4006CBF00BF082400202DE9F74F06461546BC
:1027E4009846019109F081FA044600285BD1EFF381
:1027F400118A202383F31288BFF36F8FDFF8ACB004
:1028040000220023584607F0D5F870B9DFF8A090ED
:10281400A70109EB8414636813F1100F14D1019319
:10282400584607F093F8019B06E00134042C0BF1A1
:10283400400BE5D16FF00B038AF31188BFF36F8F60
:10284400184603B0BDE8F08F019B2061C4E902354E
:102854000C9B304663610D9B09F80760A3616FF020
:102864000F03C4F83C80636002F002FD58B13046A7
:1028740002F0FEFCB5FBF0F303FB10551DB1E36B56
:1028840043F00403E36318F0020F07D007F12C01AF
:10289400084849440BF009FF0023CDE7304602F015
:1028A4008BFC0346C8E76FF00F03C9E74C2D0120EA
:1028B400302D01200824002010B5EFF311842023CB
:1028C40083F31288BFF36F8FFFF7C2FE50B14368E2
:1028D400103307D16FF08B0300F12C0143600448DF
:1028E4000BF0E3FE84F31188BFF36F8F10BD00BFBC
:1028F40008240020F8B5042520270D4CEFF3118699
:1029040087F31288BFF36F8F6368103307D16FF0BA
:102914008B030848636004F12C010BF0C6FE86F3B8
:102924001188BFF36F8F013D04F14004E6D1F8BD77
:10293400302D01200824002070B50025094C0A4ED2
:10294400314620460BF095FE0122A4F110001146F9
:1029540001350BF052FE042D04F14004F0D10020A7
:1029640070BD00BF5C2D0120812600000123016998
:1029740081F84B300B6833B191F849301BB10248F0
:1029840008310BF092BE704708240020012301692E
:1029940081F84A300B6833B191F848301BB10248D2
:1029A40008310BF082BE70470824002070B5056919
:1029B400EFF31186202383F31288BFF36F8FD5F8CA
:1029C400900009F054F8044686F31188BFF36F8F22
:1029D40030B100220023034805F1180107F052F931
:1029E400204670BD08240020012370B582F84830C9
:1029F40013680D4614463BB192F84A3023B10E4891
:102A040002F108010BF051FED4F890305A89DB88AA
:102A14009A4205D17DB904F1180140F6CD4204E093
:102A240004F11801002DF8D00022BDE87040002305
:102A3400014807F027B970BD0824002070B50E4680
:102A440081880446C9B21548154609F02BF910B31C
:102A540094F900206378002A16DB202B04D0222B63
:102A64000ED06FF085000AE02B681A6840F8102C2D
:102A74009A8820F80C2C9B7900F80A3C002070BD41
:102A8400638800F8093CF9E7212BEAD107231038C1
:102A940028603360F2E76FF01200F0E7302E012077
:102AA400014608B5034809F00AF910B1012300F8FA
:102AB400073C08BD302E0120002103460C4AA0F833
:102AC4004810106883F89C10C3F894009088927999
:102AD400A3F8980083F89A2083F89B104022A3F867
:102AE4009E1083F8A01003F14C000BF0ACBF00BFA4
:102AF400F0EF0000002310B50469C4F8A8300C4BB3
:102B0400C4F8A400596804F1A80269B9C3E9002211
:102B140004F1080007490BF0ACFD04F11800064964
:102B24000BF0D3FD002010BD0A605A60F0E700BF2F
:102B3400302E012019BD0000F52B000030B54FF4F4
:102B440000334268056942F2A10085B0CDE9010372
:102B5400002385F89D30106AADF80C100A22007924
:102B640001A909F07CF8054C95F89D3023B90120A2
:102B74000BF009FC013CF7D105B030BDA186010082
:102B8400002373B5202504698DF8071084F84830B4
:102B9400EFF3118685F31288BFF36F8F0122D4F807
:102BA40090000DF1070108F062FF86F31188BFF36E
:102BB4006F8F01280AD00BF094FD10B994F8A1305E
:102BC4006BB9094B1A780AB901221A702122002321
:102BD40004F11801054807F055F802B070BD002152
:102BE40021200BF033FED3E72360012008240020CA
:102BF400F0B5D0F88C3005465B6885B01B6A1F7D44
:102C0400384609F072F8064650BB95F886303BB357
:102C1400A86F0146C38831F80A2F9B1A9BB2B3F5FB
:102C2400806F28BF4FF4806303AA08F0D1FE0446E6
:102C3400B0B18306A5F1180385F830600193094B00
:102C440008BF00F1FF34224603990093384602235B
:102C5400FFF7C2FDA86F224600F10A0108F0EEFE5C
:102C640005B0F0BDED29000037B514460A1E05462F
:102C740021DDD4F88C0004F14C0108F0F8FE0123A6
:102C840084F8493023683BB194F84B3023B11148A0
:102C940004F108010BF009FDD4F88C209388918984
:102CA40012695B1A9BB2D31A3F2B04D8012384F810
:102CB400A03003B030BD94F89E30002BF9D0064B01
:102CC4004022009328460123019404F14C01FFF7AC
:102CD40083FDEEE7082400206D2C0000F7B50D46B7
:102CE40001461D4808F0D3FF044610B3064656F8C3
:102CF400A439691E5F6805291BD8DFE801F01C1A96
:102D0400031C222610F8061C99B9012300F8063C7E
:102D14003B6A3246187BFFF7A7FF14F85C2C42B9D4
:102D24003B6A1146187D0D4B019600930223FFF771
:102D340053FD03B0F0BD304603B0BDE8F040FFF7EB
:102D4400BBBE012304F8053CF3E710F8053C002B57
:102D5400EFD00023F6E700BF302E0120ED2900005C
:102D640037B50024084D4FF0FF334FF480622846F6
:102D74000649009406F046FF054928460BF0B7FCC7
:102D8400204603B030BD00BF082400208069052020
:102D9400C2F60000014807F099BD00BFFCF0000036
:102DA40038B5044618B90F4B0F485B6898476168FB
:102DB400B1F5683F10D0B1F5680F0DD00B4DA942A5
:102DC4000AD011F46861206807D0014608480BF066
:102DD40038FB00232360656038BD14220BF033FEFA
:102DE400F9E700BF7C210020CBF600002C5F5CA932
:102DF4003833012008B560B34368B3F5683F0ED09B
:102E0400B3F5680F18D0144A934220D000684FF0ED
:102E1400FF324FF0FF3306F09FFC58B115E001225A
:102E24000368D3E8EF1F002903D1C3E8E02F00288B
:102E3400F7D10AD1002008BD0368084A1B7803F5BE
:102E4400807352F82330002BF4D00548F3E705488B
:102E5400F1E76FF4E040EEE72C5F5CA9000003505B
:102E6400E98FFFFFEA8FFFFF08B520B34368B3F58E
:102E7400683F09D0B3F5680F13D0114A93421DD0AF
:102E8400006806F0E1FC14E000220368D3E8EF1FB9
:102E9400012903D1C3E8E02F0028F7D109D009485C
:102EA40008BD00210368084A1B7803F5807342F8C3
:102EB40023100020F4E76FF4E040F1E70348EFE764
:102EC4002C5F5CA9E98FFFFF00000350EA8FFFFF2E
:102ED40010B5044618B91D4B1D485B6898476368D4
:102EE400B3F5683F2FD0B3F5680F2CD0194A93423D
:102EF40019D1236803BB4FF0FF324FF0FF33214653
:102F0400154806F0FBFB08B923681BB90F4B13489F
:102F14005B6898471422002120680BF094FD4FF45D
:102F24006863636008E0B3F5683F0DD83A2B03D0BB
:102F340040F6BA629342DED120680BF0CCFA6368A3
:102F440043F03A03636010BD054AF3E77C21002097
:102F5400CBF600002C5F5CA938330120F1F60000A9
:102F64003A00003A08B506494023142205480BF0FC
:102F74005AFABDE808400449044807F019BD00BFE7
:102F8400382E01203833012004F1000018F100002C
:102F9400F7B5224E30688368DB6B03B1984730681D
:102FA4008368DB6A002B31D11D4C1E4D3068836869
:102FB4001B69002B2DD001220DF107019847012830
:102FC40027D1236843B92B681BB369681A688B42FD
:102FD4002A6008BF6A602360134A9DF807001188BD
:102FE4007F2904D823684F1C0B44178018720A28C1
:102FF400DCD1002023681188186059600B494D68A2
:103004004DB9C1E9003310802060CEE7984700280D
:10301400CAD103B0F0BD2B604B60F4E7AC3701209C
:1030240054330120643301200C4701205C33012018
:1030340010B5044B044618688368E1B25B6898478E
:10304400204610BDAC370120F8B5054616460846A3
:10305400EFF31187202383F31288BFF36F8F1B498B
:103064000B684BB11A4C62689A4205D000221A6070
:10307400626862B9C4E90033164A136853B987F326
:103084001188BFF36F8F18460B603360F8BD13606F
:103094006360F1E7D2F804C01C686345146008BF9C
:1030A400546087F31188BFF36F8F5C680B60A04294
:1030B400D8BF00F1FF3403F10801224628460BF083
:1030C4009BFC0023601C2B550123DEE758330120B1
:1030D400643301205C330120002337B51C462349A7
:1030E400234AC1E90033C2E90033224A4868146024
:1030F40088B9C1E900220133082B02F18802F5D115
:103104001D4D1E4828600BF043F938B94FF0FF34C9
:10311400204603B030BD02604A60ECE70020FFF7B0
:10312400C5F804460028F1D12868836823B11B6CD4
:1031340013B122461249984728688368DB6A0BB1A9
:10314400984748B1286883681B69002BFAD001228C
:103154000DF107019847F4E700220A4B28681A800A
:1031640083681B6A002BD3D09847D1E764330120CE
:103174005C3301206C330120AC370120C4EB000028
:10318400952F00000C47012041F204432DE9F04F34
:10319400ADF54F7DADF80C3040F606130026DFF890
:1031A400D890ADF81030D9F80010344BDFF8D08047
:1031B4001D680B78A5EB08055A1C62F302030B701B
:1031C4006BBA4B808B8808225BBA8B804E7030467A
:1031D40008F06CF82A46414608F068F80746ACB295
:1031E40004F10A03D9F800201FFA83FB5BBAADF897
:1031F400183013680C34CDF81A30536841462A4607
:103204000DF1180A7FBA0DF12200A4B2CDF81E30D8
:103214000BF0F2FB2AF80B70534640F2C9110094EC
:1032240005AA5BA8FEF718FABDF8147007B3154D8C
:1032340002212B6804A85B6898473446DFF848806D
:103244003E1B7C2EA8BF7C262B685BAA1019314636
:103254005B6898472B68012140465B683444984773
:10326400A74205DD2B6802215B6803A89847E7E7BE
:103274000DF54F7DBDE8F08F10380120C8370120CF
:1032840024600120143801201EF700002DE9F04FBE
:103294004FF0FF34D5B00B460594069407940121F2
:1032A40000240DF128080246C8E9004430A8009122
:1032B400CDE901440421089409940AF0A3FF4022B3
:1032C400214620A80BF0BFFB8E4B03211C93052342
:1032D40004221D938C4B06AFCDE91E378B4B8C48D3
:1032E40021938C4B05ADCDE923388B4B07AE269348
:1032F4008A4BCDE92B01CDE92836CDE92D3527912F
:1033040009AB1CA930A8229208F03FFE20B3032485
:103314000A2183480BF023F88249022280480BF0EB
:1033240011F821467E480AF0F6FF4CB97849032289
:103334007B480BF007F87C4B794819680AF0F5FFD5
:103344000A2177480BF013F8FFF71EFF089808F0DE
:10335400DEFB55B0BDE8F08F2B68D8E900985A1C05
:10336400D5D0B9F1000FD2D0DFF8C0A133B93A6893
:10337400B2F1FF3F18BF1346CAF80030DAF8000074
:10338400FDF7E8F808A9C0B2FEF798FB0446002848
:10339400BDD12B68644D002B48D1089F2860384666
:1033A400D7F808B007F01DFE614A0146384607F019
:1033B4004EFD08B10124ABE733685B45A7D85D4AED
:1033C40014605D4A13602A685A4E42443168089872
:1033D400013A08F0BAFD0028306098DB089808F03C
:1033E400E6FBB8FBF0F303FB1086DFF84CB12B6867
:1033F400A8EB06079844DBF800300898984538BFD6
:10340400002608F0D4FB012806D9089808F0CFFB61
:10341400013819EA000F51D13B464A4629680898F9
:1034240008F08BFB00287FF472AF2DE02A689342EA
:103434007FF46EAF404A434412689342C3D966E7AF
:10344400B845089828BFB84608F0B8FB40220146A2
:103454000CA80BF0F8FA424649460CA80BF0CCFA3B
:103464004346296808980CAA08F067FB08B104468B
:103474004EE72B68C14443442B60A7EB0807089828
:1034840008F095FBB842DBD9DEB92B68DBF80020E5
:1034940033443B4493422B607FF43AAF244B089867
:1034A4001A68114608F051FD002883DBDBF8002080
:1034B4000899DAF8000009F08CFAD8E74FF04008D0
:1034C400DDE7089808F07AFB082201460CA80BF007
:1034D400BAFA324609EB07010CA80BF08DFADDF8B5
:1034E40020802968404607EB010908F060FB494643
:1034F40003460CAA404608F020FB00287FF407AFDF
:10350400C3E700BF20F700005BE0000026F70000DF
:103514002FF7000065E000002BF7000061E00000D9
:10352400C8370120C5F40000C0370120C43701208A
:10353400B8370120B4370120B037012038B505462B
:103544000A4C0A2120460AF00AFF022220460849B2
:103554000AF0F8FE294620460AF0DDFE20460A213C
:103564000AF005FFBDE83840FFF70EBEC83701205A
:10357400C5F40000F0B50C68164F85B002380D464E
:10358400C4F580610090144B381903AA0131FEF789
:10359400E1F80446D0B92B68039A1344022B2B603C
:1035A40011D93E88023B76BAB6B29E420BD132465E
:1035B400B91C07F07BFE30B9022E04D92B689A1E81
:1035C4002A60FC540124204605B0F0BD4FF0FF34BE
:1035D400F9E700BF6D61012070650120002307B584
:1035E40002210093044A4FF4A47304480AF0C1FE74
:1035F40003B05DF804FB00BF24600120C83701203C
:103604002DE9F04F072904469FB040F2BE810378AC
:1036140013F0050F40F0B9814388A1F108055BBAA6
:103624009BB2AB42C0F0B181AA4B00F1080718600D
:1036340083885BBA8380FFF7D1FFA688012E40F010
:10364400A781E379012B00F0B380062B00F0B7804B
:10365400002B40F0A381247814F0070440F0A480E8
:1036640031469D480AF07BFE06229C499A480AF09E
:1036740069FE052198480AF06EFEDFF86482DFF8DF
:1036840064920026984F00E0012631462046D8F87F
:103694000050FCF74DFF05A9C0B2FEF70FFA8246B1
:1036A40050BB3146204606AA09F050F9012805D13D
:1036B40020235146059806AA08F02AFA069B4B4592
:1036C40014D13146204603F0CFFD0546874B1B68D5
:1036D40098420BD100204023CDE902000093059AC3
:1036E40001900EAB06A9FCF7D5FF05463B6805988B
:1036F400AB4207D008F00BFA002EC5D0002C44D101
:103704003446BEE708F003FA142173480AF027FE92
:103714000522774970480AF015FE21466E480AF0E2
:1037240004FE042273496C480AF00CFE31466A48D0
:103734000AF0FBFD0722704967480AF003FEBDF852
:103744002E30402101939DF82D306C4A00930EA831
:103754009DF82C3007F0FCF90C9B4BB1421E3E2A1D
:1037640006D80EADC0F14001654A284407F0F0F9CF
:103774000EA8FCF707FD0EA9024657480AF0E2FD21
:10378400142155480AF0F3FDB6E7052152480AF022
:10379400EAFD012150480AF0EAFDFFF7F5FC1FB0ED
:1037A400BDE8F04FFFF71ABF0820FFF7C7FEF6E7A2
:1037B400294638461FB0BDE8F04FFFF767BD2378B0
:1037C4005B0702D00820FFF7B9FEFDF717FE0121C1
:1037D400074641480AF0C3FD062240493E480AF024
:1037E400B1FD02213C480AF0B6FD0025DFF8149132
:1037F400042139480AF0B3FD002847D005223C498A
:1038040035480AF09FFD002840D0294632480AF086
:103814008CFD00283AD005223B492F480AF092FD3E
:10382400A0B302212C480AF096FD78B300262A4C56
:10383400DFF8C0A0DFF8D4B022E0042251462046CD
:103844000AF080FD10B3314620460AF06EFDE8B15F
:1038540031462846FCF76CFE0EA9C0B2FEF72EF9DD
:103864008046C8B10222494620460AF06BFD68B181
:10387400414620460AF04FFD40B1002E64D1012696
:10388400032120460AF06BFD0028D6D1FFF7A6FEDF
:103894000220FFF753FE76E00422594620460AF040
:1038A40051FD90B10E9B204699680AF03EFD60B12F
:1038B4000F22204616490AF045FD30B106EB4501BA
:1038C400204601310AF031FD20BB0E9808F01FF9A3
:1038D400DCE700BF10380120C837012033F70000AF
:1038E400B82000203DB8F39694270020B020002093
:1038F40020F700003AF700003FF7000047F7000008
:1039040053F70000C5F4000057F7000077F70000F4
:103914005DF700000E9808F0FAF8032120460AF03B
:1039240026FD0028B2D0002EA9D002212F480AF08B
:103934001AFD0028AAD017F8353043B904212B48C2
:103944000AF015FD0028A1D08DB9012550E70E22FB
:10395400274926480AF0F6FC002897D03B1D53F867
:10396400351022480AF0E1FC0028E7D18EE7022155
:103974001E480AF0F8FC002888D001211B480AF0F0
:10398400F6FC002882D0FFF7FFFB1FB0BDE8F08FE4
:10399400F6B9E379012B07D0052B07D008201FB017
:1039A400BDE8F04FFFF7CABD3046F8E7304609F0EE
:1039B40017F801280AD03046FFF7C0FD4FF4005035
:1039C40000210AF043FF012007F0C0FE0A20E6E7C9
:1039D4002A4639462046054BFCF7F2FD0028D4D18F
:1039E4001FB0BDE8F04FFFF7CFBB00BFC8370120C1
:1039F4006DF7000001232DE9F34100250646DFF8A9
:103A0400C080304C88F800302F4B304F0095186040
:103A140098F8003013B902B0BDE8F0812C4BC5F51D
:103A24008061C3F80046C3F80446C3F80846C3F8E7
:103A34000C46C3F81046C3F81446C3F81846C3F836
:103A44001C4603F58053C3F80046C3F80446C3F884
:103A54000846C3F80C46C3F81046C3F81446C3F826
:103A64001846C3F81C46336801AA013178199847EF
:103A74000028019B01DC002BCAD005442BB940F27D
:103A840001439D42C4D10025C2E73B78062B09D1EE
:103A94007B78092B0BD1002300936946A81EFFF7FE
:103AA40069FD04E0042B02D17B78142BF5D00128A6
:103AB400E9D1009907480239FFF7A2FDE3E700BF07
:103AC4006C6101203546526E143801206E65012068
:103AD400008001506F61012030BFFFF7FDBF00BFC0
:103AE4002DE9F04105460B4EDFF82C80324606EBFB
:103AF4000807CC1B204609490AF07EFFA01942465C
:103B04000021083C0AF09FFF2C6707F10800BDE87C
:103B1400F08100BF0000000004000000BCEF0000C2
:103B2400054B5A699B689A421FBF044A536843F085
:103B340080535360704700BF0845012000ED00E04A
:103B4400154B9A6A12F0007F9A6A14BF1E201D203A
:103B540012F0807F9A6A18BF1F2012F4801F9A6A9D
:103B640018BF022012F4002F9A6A18BF212012F401
:103B7400802F9A6A18BF222012F4003F9A6A18BF55
:103B8400232012F4803F9A6A18BF24206FEA02426D
:103B94006FEA12429A62704700ED00E010B5184BCC
:103BA4000246986A9C6A10F4805F14BF172016209E
:103BB40014F4006F9C6A18BF1820A40508D5986AED
:103BC400000404D51AB19A6A22F400429A621920B8
:103BD4000B4B9A6A12F4806F9A6A18BF1A20D205A6
:103BE4000CD49B6A13F4005F18BF1C20044A936A28
:103BF40043F47F43936200230B7010BD1B20F5E751
:103C040000ED00E010B51C4B0246986A9C6A10F067
:103C1400100F14BF1120102014F0080F9C6A18BF55
:103C24001220A40709D5586B986A000604D51AB166
:103C34009A6A22F080029A6213200F4B9A6A12F059
:103C4400010F9A6A18BF142012F0200F9A6A18BF45
:103C54001520D40658BF9B6A074B9A6A920642BF46
:103C64005A6A22F400525A629A6A42F0FF029A6235
:103C740000230B7010BD00BF00ED00E0F0B5474B12
:103C840004465B6800258BB0C3F3080385F31188F1
:103C9400BFF36F8F02F07F40B0F17F4F11D102F07C
:103CA4000C0008280DD010074CBF0C46012500223B
:103CB400033B8DF80720032B05D8DFE803F02462CB
:103CC400665F2C46F3E700239DF80720CAB902AECD
:103CD40004F12007324620686168083403C2BC42FC
:103CE4001646F7D1099A002D53D0C2F3080121B921
:103CF4006FEA52226FEA42220992184602A908F09A
:103D04009BF90BB0F0BD254BDA6A9107DBD4DA6A74
:103D1400002AD8DBDA6A5200D5D55A69A16942F47F
:103D240080725A61BFF34F8FBFF36F8F5A6931F8B6
:103D3400021C22F480725A61BFF34F8FBFF36F8F5E
:103D44004DF60272914209D09A6AD2B242B1012070
:103D54000DF10701FFF756FF0346B5E72368B3E704
:103D64009A6A12F47F4F05D001200DF10701FFF785
:103D740015FFF1E79B6AB3F5803FA4D3FFF7E0FE9C
:103D8400EAE700200DF10701E4E700200DF1070147
:103D9400EDE722F4FF7222F00102ADE700ED00E04E
:103DA400064B5A6942F010025A615A6942F4806221
:103DB4005A615A6922F008025A61704700ED00E026
:103DC400EFF30880EFF3098101B57246FFF756FF60
:103DD40001BD00BF002080F31488BFF36F8F002063
:103DE40080F30A8880F30B880F4880F3088804F076
:103DF40075F900200D490860BFF34F8F00F02CF8CF
:103E0400202080F311880A484FF40061401880F3A1
:103E14000988EFF314800221084380F31488BFF368
:103E24006F8F00F0EBF80000C0A2052094ED00E0D5
:103E340080710520002318460649D1F89020C2F36A
:103E44000722934200DB7047C1F89830C1F8A00004
:103E54000133F6E700ED00E010B572B6002484F3F8
:103E64001388FFF7E7FF23464FF0FF300C4A03F1B6
:103E740020010133102B42F82100F8D100234FF028
:103E8400FF30074A03F160010133102B42F821008F
:103E9400F8D162B6BFF34F8FBFF36F8F10BD00BF71
:103EA40000E100E0084B9B6883420BD1EFF30583EC
:103EB40043B1064B5A6842F080525A605A6A22F45F
:103EC40000425A6206F0C0B90845012000ED00E046
:103ED40014498A684FF030001044EFF3098C80E8ED
:103EE400F01F202080F31288BFF36F8F0E4F4FF026
:103EF40000664A698A603E60106F0C4C2060506F07
:103F04000023536780F3118802F1300090E8F01F1A
:103F14008CF3098802F1000004B508F0A2F8BDE8AA
:103F2400044070470845012004ED00E018380120E2
:103F34001EF0040F0CBFEFF30880EFF309808169D2
:103F440011F8021C0229FFD001B5724608F07AF874
:103F540001BD00BF40B2002807DB01234109034A29
:103F640000F01F00834042F82130704700E100E078
:103F740040B200280CDB01220649430900F01F006F
:103F84008240203341F82320BFF34F8FBFF36F8F5C
:103F9400704700BF00E100E0054B420953F82220BE
:103FA400012300F01F0003FA00F01040704700BF27
:103FB40000E100E040B2002801F10101ACBF00F1D2
:103FC4006040064B4FEA4111C9B2ABBF00F56140F6
:103FD40000F00F0080F800131954704714ED00E04E
:103FE400044B054A23F07F039360BFF34F8FBFF365
:103FF4006F8F70470000000000ED00E008B5FFF788
:10400400EFFF074AD2F8883023F47003C2F88830EF
:1040140005F0B8FA06F0BAF900F046F805F0F2FA3D
:1040240000ED00E042F8203C009B0B4942F81C3CA8
:10403400019B21F0010142F8183C029B42F8081C44
:1040440042F8143C4FF0807342F8043C0023203AB9
:1040540002654367704700BF2916000000B50B4B8B
:1040640015469860026F0A4B0E461A60036E83F37E
:104074000B882C4686F309880020064B9847204677
:10408400002100220023044C204700BF08450120E2
:10409400183801206FC00000291600001022014BBF
:1040A4001A61704700ED00E0002320210348C21884
:1040B4000133452B82F80013F9D1704700E100E089
:1040C40008B5EFF30583064A103B02EBC30152F82F
:1040D400330049688847BDE80840FFF721BD00BFA9
:1040E40084EC00001FB5094C094A23460121094804
:1040F40000F0FAF800230393074B0121E41A01A806
:104104000193029400F0FAF804B010BD00000720F7
:104114000020002028F100000824002010B50C7AAB
:104124000B6804F01F0223F01F031A43CB686409D1
:1041340023F01F03054943EA440343F00103C1F894
:104144009800C1F89C20C1F8A03010BD00ED00E03B
:1041540010B5074BD3F89030C3F30723013B9842C3
:1041640002D8FFF7DBFF10BD6FF01500FBE700BFBF
:1041740000ED00E02DE9F04F0F46144606464FF0DF
:1041840000084D4D85B0B84580F29280D6F8049071
:10419400B9F1000F36D0B9F11F0F40F2878019F042
:1041A4001F0F40F08380D6F800A01AF01F0F7DD1B6
:1041B400504607F096FF834609EB0A00013807F0E2
:1041C40090FF834572D11BF1160F6FD05C456DDDF6
:1041D400C5F898B0D5F89C10C5F898B0D5F8A030BB
:1041E40021F01F0143F01F0AD6E900321A44994214
:1041F40002F1FF391ED1CA4508D131465FFA8BF06E
:1042040007F078FF08F101080C36BCE73146C5F821
:1042140098B0D5F89C3022F01F0203F01F0313431B
:10422400C5F89C30E0B207F065FF10F1160F3DD0E1
:10423400441CE7E7C5F898B0D5F8A020013B23F06B
:104244001F0302F01F021343CA453146E0B2C5F80A
:10425400A030E8D007F04EFF10F1160F26D0C5F8B5
:1042640098B0D5F89C209DF808300AF1FF3A62F323
:1042740004038DF80830D5F8A0309DF808205B08B9
:1042840063F347128DF80820D6E9003213440093F3
:1042940023F01F035344A3EB0903013023F01F034E
:1042A4006946C0B20393FFF753FFBEE76FF01504EE
:1042B400204605B0BDE8F08F00ED00E00522044B78
:1042C400C3F89420BFF34F8FBFF36F8F704700BFC5
:1042D40000ED00E0BFF35F8F0022024BC3F894208F
:1042E400704700BF00ED00E010B5034C2278FFF7E3
:1042F40041FF207010BD00BF6F6901202DE9F74F09
:10430400294D8A4606464FF00008AB46274FD04554
:104314001BDAD6F80490B9F1000F3FD03168084693
:10432400019107F0DEFE0199044609EB0100013812
:1043340007F0D7FE84424FF014021D4B08D002FB55
:1043440008F36FF015024BF8032003B0BDE8F08FBB
:1043540014F1160F2C60F8D01978A142F5DD02FB98
:1043640008B0C7F89840C7F89840D7F89C4000F1C7
:104374000801007B64F304000871D7F8A0000C79ED
:10438400400860F347140C71D7F89C1021F01F010A
:104394006960D7F8A01021F01F01296108F1010814
:1043A40014350C36B3E700BF1C38012000ED00E0E3
:1043B4006F690120F0B54149414CD1F8903025682E
:1043C400C3F307239D4287B075D80020FFF782FF0F
:1043D4003C4BC1F8C030854216D13B4C01A8257036
:1043E400FDF766FB00250646384FAE4213D1002088
:1043F40023783249D1F89020C2F30722934254DB48
:10440400FFF75CFF00202FE0616801EB0011FFF76C
:1044140085FE0130DFE70199280101EB0513DA6815
:104424003A40B2F5001F21D0B2F5800F2BD0B2F57F
:10443400801F38D15A689B680958013B22F01F003D
:1044440003440120844623F01F0340EA4C10CDE9C5
:1044540002218DF8100002A920780593FFF778FE59
:1044640000281DDA6FF0150007B0F0BD5A689B688C
:104474000958013B22F01F0003444FF0020C0120B5
:1044840023F01F03E1E75A689B680958013B22F0B7
:104494001F0003444FF0000C022023F01F03D4E755
:1044A40023780133237001359FE7C1F89830C1F8B0
:1044B400A00001339EE74FF0FF30D5E700ED00E0A8
:1044C40034F10000AAFF44006F6901200000F0FFEE
:1044D400054B03EB8000D0F8003223F0E04343F0B7
:1044E4004053C0F80032704700258450052370B54E
:1044F400144D154E2C780134B4FBF3F303EB830312
:10450400E41A08F01FFA114A137823B156F824303C
:10451400C01A072814D94FF05023D3F8141141B10D
:104524000021C3F81411D3F814312C700CB90123F1
:1045340013702C7808F006FA46F82400012070BDA8
:104544000020FCE7716901203038012070690120E6
:10455400012208B50B4B0C49C3F8002502230020A7
:10456400C1F8D036FFF7B4FF1046FFF7B1FFC1F82A
:104574000427C1F80429C1F8002BBDE8084000F065
:10458400A5B800BF001000500040005007B50DF161
:10459400070003F0C7FE0F4B984218D14FF4806216
:1045A4000D4B0E49C3F8B8254FF40062C3F83C25FF
:1045B4009DF8070009F0AFFA9DF80700084909F0D3
:1045C400A5FA01209DF80730984003F0A5FE03B03A
:1045D4005DF804FB0000AD0B00A002502CA00250BB
:1045E40028A1025048B1054B054A1B68B3FBF2F3FE
:1045F4005843044B43F001031847704758210020E7
:1046040040420F0000F00000002170B5104C114D25
:10461400114E000714F8013B03F01F025B090FD091
:10462400012B0FD1334603EB8203D3F8002201316F
:1046340022F0E04202430429C3F80022EAD170BD0B
:104644002B46F0E70023803253F82230FFDE00BF10
:104654008FF7000000258450002884502DE9F04194
:10466400064601200D46FFF7CFFF4FF47F03D3F832
:104674003021D3F83431072A20D1023B032B02D84E
:10468400114AD35CD3B14FF050244FF001080027F6
:104694000520C4F81886C4F8147609F035FA4046A3
:1046A400C4F8148609F030FAC4F81476C4F81876FD
:1046B40030462B46BDE8F041002118474FF0502307
:1046C4000022C3F81426F3E78BF7000001490248DF
:1046D40007F0B7B85CF1000044380120BFF34F8FF6
:1046E4000549064BCA6802F4E0621343CB60BFF38A
:1046F4004F8F00BFFDE700BF00ED00E00400FA05A6
:104704000146014809F06EBFF02200200149024829
:1047140009F0CBBF88380120A8240020020600F04D
:104724007F0312D5082B05D1010700F00F0306D52E
:104734000E48704710F0780F12D100F00F034C2090
:1047440000EB43100A4B18447047082B05D10207AD
:1047540000F00F0306D50748704710F0780FF6D025
:1047640000207047044800EB43107047AC39012027
:1047740060380120CC3A0120CC39012000220023EA
:10478400014805F0B1B800BFF022002013B50022A3
:1047940001213720FFF70EFC114800F023FE114BD6
:1047A40098421AD10024104804F0B4F90F4804F0D8
:1047B400EBFD4FF0FF334FF480620D490D48009438
:1047C40005F020FA0C490B4809F091FF0B480C49FD
:1047D40009F04FFF204602B010BD6FF00400FAE765
:1047E400154A00000000AD0B9EF7000068F10000C0
:1047F400806D0520A824002093F70000883801204C
:10480400314B0000002310B50B49D1E8EF2F012AEA
:1048140003D1C1E8E03F0028F7D10CD151F8044C92
:104824001439204607F09BF8783004D12046BDE8BF
:10483400104007F070B810BD8038012038B500244E
:1048440064F07F00C0B2FFF769FF013407F087FC12
:10485400082CF5D100240E4DE0B2FFF75FFF036989
:1048640003B90561013407F07AFC082C05F1400511
:10487400F2D1084807F073FC074BD3F87C2212B935
:10488400064AC3F87C22064807F069FC002038BDBC
:10489400F03E0120AC39012060380120F03A0120BB
:1048A400CC3A012010B5054CFFF768FF20B14168F0
:1048B400204609F0C6FDF7E710BD00BF60220020C6
:1048C40007B5002300220E4801A904F017FF90B198
:1048D400FFF7E8FF00220023094801A904F00EFFB6
:1048E40038B90423019840600374FFF709FFFFF708
:1048F4000DFF002001E00198406003B05DF804FB67
:104904006022002010B50446FFF7DAFF60B10022F0
:1049140004720274FFF7F4FE044B93F824301BB1C5
:10492400BDE81040FFF7F2BE10BD00BF60380120A3
:10493400012807B50FD002280ED048B90022002361
:104944000848CDE9002345F69A12002305F0DEFE5F
:1049540003B05DF804FB002003B05DF804EBFFF73F
:10496400D1BF00BFF0210020F8B58778064638464D
:10497400FFF7D4FE3B060446F57812D5002D43D14B
:10498400FFF79EFF034600283ED00122A57702745C
:10499400032202739C60FFF7B3FEBDE8F840FFF703
:1049A400B5BE4DB1012D2FD1FFF78AFF034658B391
:1049B400657705740573EDE7FFF782FF20B3B278DE
:1049C400124B12F0800F02F0080111D041B1D3F85C
:1049D400A836E36001230374022384600373DAE7D7
:1049E400142102F00F0201FB0233D3F80836F0E77A
:1049F40011B1D3F8A837ECE7142102F00F0201FB40
:104A04000233D3F80837E4E7F8BD00BF0060035071
:104A1400F0B5064689B01422002103A80AF013F861
:104A24003378013B052B21D8DFE803F07A03141413
:104A34006A16032300248DF81430FFF741FF034660
:104A4400A0B100F108020474DDE9050182E8030065
:104A540018461DE00423EDE7B7783846FFF75EFEFD
:104A6400837A044623B1013B022B43D909B0F0BD3C
:104A74003B06F57813D5002DF8D1FFF721FF034647
:104A84000028F3D00122A5770274032202739C60EC
:104A9400FFF736FE09B0BDE8F040FFF737BE55B169
:104AA400012DE3D1FFF70CFF03460028DED0657724
:104AB40005740573EBE7FFF703FF07460028D5D01D
:104AC4000123037402238460037304F10C01B0789E
:104AD40007F0A9FB134AE168B2F88C328B4206D97D
:104AE4005B1AA2F88C3200F0C9FF3846D0E7A2F86E
:104AF4008C52FAE7304609B0BDE8F040FFF734BF06
:104B040001A800F099FF9DF80530052B04D19DF80C
:104B1400043013F0600FA9D0034B012405938CE7F4
:104B240002248AE760380120CC3901202DE9F043C2
:104B34008046AC4CDFF8B09285B0FFF71FFE074605
:104B440010B905B0BDE8F08394F825303A7C3BB940
:104B5400002A00F087807968A34809F072FCECE72A
:104B6400042A43D8DFE812F07E000500FD0013019B
:104B74002E013B7BBD68032B38D8DFE803F0023EEF
:104B84005B6000226E69994B32607260D3F88014C6
:104B94003170D3F884147170D3F88814D3F88C046A
:104BA40041EA00217180D3F89014D3F8940441EAC7
:104BB4000021B180D3F89814D3F89C3441EA03233C
:104BC400F3800823EB6030687168894B03C3114696
:104BD4002B68687A984796F90030002B09DBF38834
:104BE4009AB232B1A4F88C3200F048FF4846796892
:104BF400B3E70023A4F88C32F8E76B7F002BF5D0E1
:104C04002B7F002BF2D000264FF0FF326E774FF04F
:104C1400FF3378482E7707F0B5FA6B6901A9019341
:104C24006B68CDE90236687A00F032FC714807F00F
:104C3400ABFADBE701212B68687A9847D6E7AB7AB1
:104C44006BB9EB7F5BB96B484FF0FF324FF0FF332A
:104C540007F098FA00F018FF664807F095FA022169
:104C64002B68E9E73A7A042AC0D8DFE802F0550352
:104C74001F636F0000F076FB05460028B6D100F0F4
:104C840023FB01235C49D1E8EF2F002A03D1C1E8BB
:104C9400E03F0028F7D1A9D141F8085C41F8105C45
:104CA400E0691439636106F0DFFD9FE7002565F0D4
:104CB4007F00C0B2FFF732FD037A13B1407A01F0EE
:104CC40045F80135082DF2D194F854311BB194F80C
:104CD400550101F03BF80025E8B2FFF71FFD037A08
:104CE40013B1407A01F032F80135082DF4D194F86B
:104CF40074321BB194F8750201F028F8002000F01A
:104D040015FB012384F825302368002B3FF46EAF94
:104D140000210220984769E7002584F8255000F017
:104D24007DFFFFF76FFD2368002B3FF45FAF29463B
:104D34000420EFE7002B3FF459AF00F01DFB23687C
:104D4400002B3FF453AF00210520E3E72268002A3B
:104D54003FF44CAF002B3FF449AF002106209047AD
:104D640044E708F110054FF0FF334FF0FF322846B7
:104D740007F008FAFFF762FD284607F005FA58F82D
:104D8400283C002B3FF432AF00210120C2E794F805
:104D940074327BB1012584F8895284F88852FFF774
:104DA4008FFD38B1154A057405738260FFF7A8FCBE
:104DB400FFF7ACFC58F8283C002B3FF417AF002158
:104DC4000A20A7E704F0C8FA00F028FF00F072FAFE
:104DD400FFF768FDFFF732FD04F0B6FA084800F06B
:104DE40001FB03E7603801206022002000600350CB
:104DF400643801209838012080380120CC3A012001
:104E0400154A000038B5154D95F8244024BB05F12A
:104E1400380009F060FB022001F0FCF82246012171
:104E2400E8613620FFF7C6F804F08EFAFFF706FDB6
:104E3400044610B9012385F82430094B1B680BB1D3
:104E4400FFF764FC074BD3F80034DB0702D50020DE
:104E5400FFF76EFD204638BD0024FBE760380120D3
:104E6400F02200200070035010B54FF0FF324FF0D5
:104E7400FF330B4807F086F9FFF714FD00F072FAD0
:104E840008B100F0CBFE0024FFF7BCFC04F064FA88
:104E9400044880F82440383007F076F9204610BDE5
:104EA4009838012060380120074B93F824203AB148
:104EB40093F82530002B14BF00206FF012007047C8
:104EC4006FF01200704700BF6038012038B5104BF6
:104ED400044693F82430C3B105782846FFF71EFC36
:104EE40010B96FF0150038BD457223798372638859
:104EF40043602078618810F0080F02D14B1E0B42EA
:104F0400EFD107F08BF90020EDE76FF01200EAE72C
:104F14006038012038B5124B054693F82420CAB1F5
:104F240093F82530B3B1FFF7F9FB0446A8B1837AAF
:104F3400012B12D007D9023B012B07D9002063694A
:104F4400E060A36138BD00F0A5FDF7E7284600F056
:104F540047FDF3E76FF01200F4E76FF01500F1E797
:104F64006038012038B50E4B054693F8242082B1F1
:104F740093F825306BB1FFF7D1FB68B115F0080445
:104F84000AD1284600F04EFD284600F017FF2046BF
:104F940038BD6FF01200FBE76FF01500F8E700BFB3
:104FA4006038012038B50C4B054693F824200C4694
:104FB40062B193F825304BB1FFF7B0FB48B144B16F
:104FC400284600F015FD2070002038BD6FF0120057
:104FD400FBE76FF01500F8E76038012070B5134E59
:104FE400044696F82430C3B1FFF798FB0546B8B1E0
:104FF400230705D4204600F015FD204600F0DEFE10
:105004002B7A83B901232B7296F825300BB9002033
:1050140070BD204600F09AFEF9E76FF01200F7E742
:105024006FF01500F4E76FF07700F1E760380120C6
:105034002DE9F043DFF8E4801E4698F82430074653
:105044008946154685B0002B61D098F82530002B91
:105054005DD003065ED5FFF761FB0446002859D0F6
:10506400037A002B56D04FF0FF334FF0FF3208F194
:10507400380007F087F8A37F4BB108F1380007F038
:1050840083F86FF00A04204605B0BDE8F083A37AE4
:10509400C5B13BB301234FF00008A377384601A9FB
:1050A400CDE90195CDF80C8000F0F2F91C4B984243
:1050B40029D084F81E801EBB6FF00404194807F041
:1050C40063F8E0E7E27F02B1E577002BE2D100F07C
:1050D400E7FC8742DED000F0D7FC124807F054F812
:1050E4000024D0E7B8F80A30AB42F0D96268B5FBC7
:1050F400F2F302FB1353002BE9D10123E377E6E734
:10510400C6F80080D8E706B135600024D6E76FF012
:105114001204B8E76FF01504B5E700BF603801204A
:105124000000AD0B983801202DE9F0411D46204BBD
:10513400174693F824200E46002A33D093F82530DE
:1051440083B3030631D401B97FBBFFF7E7FA044602
:1051540058B3037A4BB34FF0FF334FF0FF32154887
:1051640007F010F8E368BB42984628BFB84646B932
:105174003FB905B12B600F4807F006F80020BDE8E1
:10518400F08142463046A16909F036FCA3694344E4
:10519400A361E368A3EB0803E360002DEBD0C5F83B
:1051A4000080E8E76FF01200E9E76FF01500E6E72A
:1051B400603801209838012070B51E4D034695F8DB
:1051C400242082B395F825206AB31B062ED4FFF75A
:1051D400A5FA044650B3037A43B34FF0FF334FF0BC
:1051E400FF3205F1380006F0CDFFE368B3B90126BC
:1051F40063692677A361637F83B1FFF761FB30B9ED
:1052040005F1380006F0C0FF6FF00B0070BD0674A6
:1052140084600673FFF774FAFFF778FA064806F01D
:10522400B3FF0020F2E76FF01200EFE76FF0150014
:10523400ECE700BF603801209838012010B5084B16
:105244000C4693F824302BB1FFF768FA28B10460B8
:10525400002010BD6FF01200FBE76FF01500F8E7B7
:1052640060380120014B1860704700BF603801208E
:1052740008B5074B93F8243023B1FFF74FFA20B158
:10528400406808BD6FF01200FBE76FF01500F8E707
:1052940060380120064B10F0800FA3F1D80208BF3C
:1052A4001346182200F00F0002FB0030704700BFC5
:1052B400084201200023024A1360024A1370704717
:1052C400E8420120766901204FF40062114BC3F8D3
:1052D40000240122C3F80025D3F800241205FBD5CD
:1052E4004FF40062C3F800248022C3F81C25012275
:1052F400C3F8302540F2FF12074B1A600023074A17
:105304001360074A1370074A13700222064B1A707F
:10531400704700BF00600350E4420120E0420120D6
:105324007269012074690120766901200022094B09
:1053340010B51A70084A094B094C002808BF1346D7
:105344003620C4F80033FEF705FE0123C4F8043503
:1053540010BD00BF75690120FDFFDF01FDFFFF01E6
:1053640000600350034B1878012894BF00200120EB
:10537400704700BF7669012010B54FF0FF324FF03F
:10538400FF33154804F016FBEFF31181202383F358
:105394001288BFF36F8F114B1B7803F0FF0483B1A6
:1053A4000F4BD3F8002412F400720AD10120C3F881
:1053B4002C05D3F82C05D3F80004800502D5C3F8D6
:1053C4002C25002481F31188BFF36F8F024804F069
:1053D400BDFA204610BD00BFE022002075690120FF
:1053E40000600350F8B51C4B1C7894BB1B4A40F278
:1053F400FF171060012226461A7064F07F0514F02E
:10540400080FEDB214BF39464021284606F006FFC6
:105414002846FFF73FFF0134092C867506730661A1
:10542400EBD1002440F2FF17254614F0080FE6B232
:1054340014BF39464021304606F0F0FE3046FFF7EF
:1054440029FF0134092C857505730561EDD10448E4
:10545400F8BD0448FCE700BF76690120E84201205A
:105464000000AD0B0500AD0B084B10F0800F14BF0E
:10547400D3F81025D3F81425012300F00F018B4035
:10548400134214BF01200020704700BF0060035086
:1054940002462DE9F843EFF31187202383F31288A2
:1054A400BFF36F8F030703D1194B1B7883422AD1B3
:1054B400184B10461C684FF00109E44306F0A6FEA1
:1054C400154EA4B2356809FA00F82C4314EA08040E
:1054D4001BD11046FFF7DEFE034680F80C9007C987
:1054E40083E807004FF480021C619C750B4B45EA6E
:1054F40008050B483560C3F8042187F31188BFF30E
:105504006F8FBDE8F8830748F7E70748F5E700BF62
:1055140074690120E4420120E042012000E100E03E
:105524000000AD0B0A00AD0B0B00AD0B10F0080F23
:10553400074B06D0D3F8C00410F4803F18BF0020F6
:10554400704700F00F0000F5947053F82000704786
:10555400006003502DE9F04FAB4BAC4FD3F854210E
:1055640085B0DAB10022C3F85421D3F804138902B8
:1055740014D58DF80C20D3F8202503A8ADF80E20FF
:10558400D3F8C034002B14BF4FF001224FF48072C3
:105594003B6813433B609E4B1B6898479A4BD3F878
:1055A400604134B10022C3F86021D3F86C44C3F8DD
:1055B4006C44D3F828214AB10022C3F82821954B22
:1055C400187806F023FE012383401C43DFF8488249
:1055D400924E98F8005098F9009015F0080141D1C6
:1055E400B9F1000F05F00F032CDA8D4A52F82300AD
:1055F40010B342F823101422534303F1A04303F5DC
:105604005833D3F80836874A03F0010311784B4026
:105614001370854804F09AF92846FFF73BFE837D12
:10562400032B37D1284606F0F1FD012303FA00F0DD
:10563400336823EA0003336001254FF00609DFF8DD
:10564400D0A15DE0794A52F823000028F4D042F852
:1056540023101422534303F1A04303F55833D3F822
:105664000837D0E7B9F1000F674B09DBD3F85021B5
:10567400002AE1D00022C3F85021D3F8A837C2E7AA
:10568400D3F82C21002AD7D00022C3F82C21D3F838
:10569400A836B8E7037BDBB9284606F0B7FD01233B
:1056A40003FA00F03368B9F1000F23EA0003336012
:1056B40001DA882DC0D106238DF80C3000238DF833
:1056C4000F30534B8DF80E501B6803A89847B3E76F
:1056D400002DB1D101224C4BDA64ADE794FAA4F069
:1056E400B0FA80F03A6805FA00F31A430F283A60DA
:1056F40024EA0304326840F39D80134200F0AA8038
:10570400002CEBD1404BD3F800215AB1C3F800412F
:10571400474B03A81C703F4B1C70012303933C4B65
:105724001B689847384BD3F85821002A2ED0002202
:10573400C3F85821D3F80044C3F80044E30508D55E
:1057440001223B4B03A81A7002230393304B1B68BE
:105754009847A50508D50022354B03A81A700323E2
:1057640003932B4B1B68984760050FD5304B1A7871
:1057740062B100221A700122234B03A8C3F8082542
:105784009A6504230393224B1B6898471E4BD3F856
:105794005C3103B3244B9B681BB998F8003059065D
:1057A40019D00022184B03A8C3F85C21D3F8803425
:1057B400184A23F07F031370336823F00113336016
:1057C4003B6823F4803343F001033B6005230393D8
:1057D4000F4B1B68984732683B681A4200F093806D
:1057E40000220023104804F0E5F8002840F08B80E4
:1057F400054BD3F82C35002B00F0A8800A4805B0DF
:10580400BDE8F04F04F0A2B800600350E442012068
:10581400E84201207469012073690120E0420120FB
:105824000861035072690120E022002030610350B6
:105834007569012013407FF463AF60F07F018DF838
:105844000C908DF80E108DF80F30DAF8003003A8A4
:10585400984755E7A0F110018DF80C908DF80E10C3
:105864008DF80F50F1E749F080052846FFF712FD47
:105874004368B0F814B001689B4528BF9B4601F00B
:105884006043B3F1005F044604D05A46514809F01E
:10589400B3F85049226863685A442260A268A3EBB3
:1058A4000B03D20768B2636005D5BBF1000F04D1C6
:1058B4000023237301E0002BFAD0012202FA09F934
:1058C4002AEA09033B60236915F0080F5B4423614E
:1058D40088F80050404B6FD100284FF0140005F0B9
:1058E4000F0500FB0530B5BF03EB85030A35C0F88F
:1058F4000016C0F80017B5BFC0F804B6C0F804B766
:105904005A6043F8252005B0BDE8F08F61464FF09A
:10591400000B70454AD1003A18BF0122BCF1000FB8
:1059240046D0584544D9012202FA09F223EA020377
:105934003360062302218DF80C30284BA1751B68B7
:105944008DF80E508DF80F1003A898473368D7F8D8
:1059540000A013EA0A093FF451AF19F0012214BF61
:1059640092FAA2F999FAA9F9B9FA89F9B9F10F0FDA
:1059740001937FF678AFA9F11005EDB22846FFF741
:1059840089FC04462846FFF7D1FD6268B4F814E0A8
:105994009042D4F800C0019BB8D800EB0C0B121A4B
:1059A400C4F800B0614683466260B2E70022B5E7FE
:1059B40068B2002A81D17BE70028B5BFC3F8A016DE
:1059C400C3F8A017C3F8A4B6C3F8A4B7B4BF5A6207
:1059D4009A6498E7F040012000600350E8420120F7
:1059E400024B40F48070C3F8180570470060035000
:1059F400030713D400F00F0310F0800F084A0BBF05
:105A040003F5887303F5847302EB830252F82300D1
:105A140008BF5068003818BF012070470020704745
:105A240000600350034BC3F80C0540F48070C3F8C6
:105A34000C057047006003500023036043600E4B65
:105A4400D3F880240270D3F884244270D3F88824D5
:105A5400D3F88C1442EA01224280D3F89024D3F87C
:105A6400941442EA01228280D3F89824D3F89C3417
:105A740042EA0323C3807047006003500122014BB4
:105A8400DA647047006003500122014B1A657047C5
:105A9400006003500122014B5A65704700600350B7
:105AA400014B1878704700BF74690120024610B595
:105AB400EFF31184202383F31288BFF36F8F06F072
:105AC400A5FB01230A4903FA00F00B6823EA00034B
:105AD4000B6012F0080101BF02F00F02054B02F542
