:020000021000EC
:10020000B0E2002049BC0100B50B040035BC010080
:1002100035BC010035BC010035BC010035BC010016
:10022000000000000000000000000000A5BD01006B
:1002300035BC01000000000045BD010035BC0100D7
:100240006DBF01006DBF01006DBF01006DBF0100FA
:100250006DBF01006DBF01006DBF01006DBF0100EA
:100260006DBF01006DBF01006DBF01006DBF0100DA
:100270006DBF01006DBF01006DBF01006DBF0100CA
:100280006DBF01006DBF01006DBF01006DBF0100BA
:100290006DBF01006DBF01006DBF01006DBF0100AA
:1002A0006DBF01006DBF01006DBF01006DBF01009A
:1002B0006DBF01006DBF01006DBF01006DBF01008A
:1002C0006DBF01006DBF01006DBF01006DBF01007A
:1002D0006DBF01006DBF01006DBF01006DBF01006A
:1002E0006DBF01006DBF01006DBF01006DBF01005A
:1002F0006DBF01006DBF01006DBF01006DBF01004A
:100300006DBF01006DBF01006DBF01006DBF010039
:100310006DBF01006DBF01006DBF01006DBF010029
:100320006DBF01006DBF01006DBF01006DBF010019
:100330006DBF01006DBF01006DBF01006DBF010009
:100340006DBF01006DBF01006DBF01006DBF0100F9
:040350006DBF01007C
:1003580080EA101404F0F01480EA0410604081EA86
:10036800111404F0F01481EA0411614082EA1214B5
:1003780004F0F01482EA0412624083EA131404F0D1
:10038800F01483EA0413634080EA102404F47F44E1
:1003980080EA0420604081EA112404F47F4481EA61
:1003A8000421614082EA122404F47F4482EA042290
:1003B800624083EA132404F47F4483EA04236340FD
:1003C80081EA500404F0553480EA4400614083EA2D
:1003D800520404F0553482EA4402634082EA9004ED
:1003E80004F0333480EA8400624083EA910404F024
:1003F800333481EA84016340704700BF82EA900485
:1004080004F0333480EA8400624083EA910404F003
:10041800333481EA8401634081EA500404F055349E
:1004280080EA4400614083EA520404F0553482EAC9
:100438004402634080EA102404F47F4480EA0420E4
:10044800604081EA112404F47F4481EA0421614078
:1004580082EA122404F47F4482EA0422624083EA96
:10046800132404F47F4483EA0423634080EA1014CD
:1004780004F0F01480EA0410604081EA111404F0DA
:10048800F01481EA0411614082EA121404F0F014B5
:1004980082EA0412624083EA131404F0F01483EA37
:1004A80004136340704700BF2DE9F14F94464FEAAB
:1004B800930B8A68CB6808684968FFF749FF0BF116
:1004C800060E33E083EA134480EA134582EA1347B1
:1004D80046BA96EA3444604000F00F1684EA0634BF
:1004E80020F00F1684EA161054BA94EA01067240F6
:1004F80002F00F1486EA043622F00F1486EA14126A
:100508004CBA6540694001F00F1485EA043521F0C2
:100518000F1485EA14115CBA67407B4003F00F148E
:1005280087EA043723F00F1487EA1413BCE8F000B5
:100538006040694072407B4000F0E03400F01035C4
:1005480000F00F3040EA540040EAC50080EA900409
:1005580004F0332480EA8400604001F0E03401F0C4
:10056800103501F00F3141EA540141EAC50181EA31
:10057800910404F0332481EA8401614002F0E034FC
:1005880002F0103502F00F3242EA540242EAC50284
:1005980082EA920404F0332482EA8402624003F07F
:1005A800E03403F0103503F00F3343EA540343EA11
:1005B800C50383EA930404F0332483EA8403634085
:1005C80081EA324787EA134581EA354690EA06040C
:1005D80084EA034B82EA1B4280EA044484EA054425
:1005E80083EA144A85EA14448BEA044B84EA3744C4
:1005F80081EA0B4181EA164104EA0A00454082EA91
:1006080004082BEA080041408AEA0B0602EA0600C1
:1006180084EA34438AEA3A4603EA060778404540C2
:10062800414088EA38478BEA3B4007EA000985EAF7
:10063800090583EA0709464006EA0906714085EA82
:10064800010005EA3546464006EA314181EA304173
:1006580081EA364606EA304686EA3546344008EAF4
:10066800010886EA01052A4086EA364003405A40D6
:1006780081EA31431F407C4080EA030709EA070901
:1006880088EA0908544088EA020806EA0A0601EAE4
:100698000B018AEA0B0215408AEA3A4210404540AB
:1006A8008BEA3B4003405E404240174079404D4052
:1006B8004E40E443F64386EA18435D4085EA054028
:1006C80083EA134386EA034183EA384284EA114302
:1006D80083EA04435FEA3343BEF1010E3FF6F2AE0C
:1006E8001ED4BCE8F0006040694072407B4020BCEA
:1006F800FFF784FE28606960AA60EB60BDE8F08FB0
:100708002DE9E0414FF2F00280EA1031114080EA11
:100718000130484041088208C3084FF0000E4FE7F7
:1007280000F0113001F0113102F0113203F01133F1
:1007380040EA410040EA820040EAC3004FF2F0027A
:1007480080EA1031114080EA01304840BDE8E0817C
:100758002DE9F04F02F11C050646074600EB850817
:1007680051F8040B043A46F8040BF9D14FF0010C88
:10077800FFF7C6FF5FEA302080EA0C001ECF414039
:100788004A4053405C401EC62000464517D04FEAF9
:100798004C0C1CF4807F18BFACF1E50C2C2DE7D075
:1007A8003C2D06D1FFF7ACFF06CF41404A4006C6B4
:1007B800100006CF41404A4006C61000D8E736E987
:1007C8000F00FFF7C5FD043D86E80F00F7D1BDE82F
:1007D800F08F00BF2DE9F14F03F11C0402EB840CEC
:1007E8004FEA930B8A68CB6808684968FFF7B0FD41
:1007F8003CE9F0006040694072407B400BF1060E16
:100808004EE083EA134480EA134582EA134746BA66
:1008180096EA3444604000F00F1684EA063420F06B
:100828000F1684EA161054BA94EA0106724002F0D0
:100838000F1486EA043622F00F1486EA14124CBA12
:100848006540694001F00F1485EA043521F00F1462
:1008580085EA14115CBA67407B4003F00F1487EAFD
:10086800043723F00F1487EA141344BA44404DBAEE
:100878004D4056BA56405FBA5F4087EA174886EA45
:10088800174B84EA17464FEA38488BEA1B4485EA37
:100898001B4788EA1B4580EA3440694072407B4028
:1008A80000F0703400F0803500F00F3040EA44006A
:1008B80040EAD50080EA900404F0332480EA8400FA
:1008C800604001F0703401F0803501F00F3141EAE9
:1008D800440141EAD50181EA910404F0332481EA14
:1008E8008401614002F0703402F0803502F00F326A
:1008F80042EA440242EAD50282EA920404F033242E
:1009080082EA8402624003F0703403F0803503F019
:100918000F3343EA440343EAD50383EA930404F01C
:10092800332483EA84036340C943DB4381EA000438
:1009380083EA044686EA020183EA014382EA3345F0
:1009480083EA14435C4084EA00077FEA040A8AEADF
:10095800024A8AEA010B87EA11488AEA374A80EA9A
:10096800060181EA1A418AEA030A04EA0A004540B4
:1009780088EA040707EA0B0041408AEA0B0608EAFE
:10098800060084EA34428AEA3A4602EA06035840F4
:100998004540414087EA37438BEA3B4003EA000978
:1009A80085EA090582EA0309464006EA0906714014
:1009B80085EA010005EA3546464006EA314181EA02
:1009C800304181EA364606EA304686EA3546344002
:1009D8000F4086EA010508EA050886EA3640024023
:1009E80088EA020881EA314213405C4080EA020347
:1009F80009EA030987EA0907674088EA040806EA5A
:100A08000A0601EA0B018AEA0B0425408AEA3A44FD
:100A1800204045408BEA3B4B02EA0B02564084EAF1
:100A28000B04234059406E40694087EA364080EA0B
:100A3800384080EA060380EA104481EA134585EAD3
:100A4800344585EA17427D4082EA354180EA05400F
:100A58003CE9F0006040694072407B40BEF1010E05
:100A68003FF6CFAE20BCFFF7C9FC28606960AA60DA
:100A7800EB60BDE8F08F00BFFFF76ABE2DE9F00715
:100A880091E8F807B2E802105B1854EB0C04B2E8DE
:100A980002104D4156EB0C06B2E802104F4158EBDC
:100AA8000C08B2E8021059EB01095AEB0C0A80E86D
:100AB800F80780410130BDE8F00770472DE9F007DD
:100AC80091E8F807B2E802105B1A74EB0C04B2E87C
:100AD80002108D4176EB0C06B2E802108F4178EBDC
:100AE8000C08B2E8021079EB01097AEB0C0A80E8ED
:100AF800F80780414042BDE8F00770472DE9F0074C
:100B0800524290E87800B1E880071740DB1918EAEC
:100B1800020854EB080419EA020955EB09051AEA18
:100B2800020A56EB0A0678C090E87800B1E8800718
:100B380017407B4118EA020854EB080419EA020935
:100B480055EB09051AEA020A56EB0A0678C08041F5
:100B58000130BDE8F00770472DE9F007524290E8F0
:100B68007800B1E880071740DB1B18EA020874EB2D
:100B7800080419EA020975EB09051AEA020A76EB74
:100B88000A0678C090E87800B1E880071740BB41B2
:100B980018EA020874EB080419EA020975EB09055A
:100BA8001AEA020A76EB0A0678C080414042BDE89C
:100BB800F00770472DE9F00152424FF0040890E821
:100BC800300091E8C000A31B1340E41AF618EB1B91
:100BD8001340ED1AFF1830C0C0C1B8F10108EED1BA
:100BE800BDE8F001704700BF00B592E8DC072DE9C9
:100BF800DC07B1E8805702B4A7FB02510A95A8FBAD
:100C0800020BE7FB6310E9FB62B00B91A8FB0351F1
:100C1800EAFB6201E7FB64B5E7FB6605E8FB6615DE
:100C2800CDF830B0A9FB03B6EAFB6316ECFB6356BC
:100C3800E8FB640BE9FB641BEAFB645BECFB646B9D
:100C48000D90ACFB0230059CEEFB6250E9FB646042
:100C5800EAFB64B0E7FB6431E8FB6451069CE8FBFF
:100C68006461E9FB64B1EAFB64010E93A7FB0432FB
:100C7800079CE7FB6462E8FB64B2E9FB6402EAFBF9
:100C88006412049CE9FB6453EAFB6463089CE7FB79
:100C980064B3E8FB6403E9FB6413EAFB64230F9580
:100CA8005DF8049B99E80006DDF80080A9FB08546C
:100CB800EAFB68B4DDF81080ECFB6804EEFB68140E
:100CC800E9FB6824EAFB6834DDF80480EEFB68651C
:100CD800E9FB68B5EAFB6805DDF81480ECFB6815EC
:100CE800EEFB6825E9FB6835EAFB68450F96DDF8F9
:100CF8000880AEFB0876E9FB6806EAFB6816DDF8B3
:100D08001880ECFB6826EEFB6836E9FB6846EAFBD0
:100D18006856DDF80C80ECFB68B7EEFB6807E9FB6A
:100D28006817EAFB6827DDF81C80ECFB6837EEFBE8
:100D38006847E9FB6857EAFB686708B000BD00BF71
:100D48002DE9F14F87B0FFF74FFFDDF81C8008F160
:100D5800200888E8FF00FFBC87E87F08BDE8F08F1F
:100D680000B591E89857A3FB03520195A3FB040132
:100D7800E3FB6420E3FB67100292A3FB0752E3FB4B
:100D88006802E4FB6415E3FB6805E3FB692503914E
:100D9800A4FB07B6E3FB6926E3FB6A56E4FB670B93
:100DA800E4FB682BE3FB6A5BE3FB6C6B0490A4FB3E
:100DB8000810E4FB6950E3FB6C60E3FB6EB0E7FBF3
:100DC8006721E4FB6951E4FB6A61E3FB6EB1E4FB74
:100DD8006E010592A7FB0832E4FB6A62E4FB6CB281
:100DE800E4FB6E02E7FB6E12E7FB6853E7FB6963FF
:100DF800E4FB6CB3E7FB6C03E7FB6E13E8FB6E23C5
:100E08000695A7FB0954E7FB6AB4E7FB6C04E8FB0B
:100E18006C14E8FB6E24E9FB6E34E8FB6865E7FBBD
:100E28006AB5E8FB6A05E8FB6C15E9FB6C25E9FB8C
:100E38006E35EAFB6E450796A8FB0976E8FB6A065D
:100E4800E9FB6A16E9FB6C26EAFB6C36EAFB6E46A0
:100E5800ECFB6E56E8FB69B7E9FB6907E9FB6A1723
:100E6800EAFB6A27EAFB6C37ECFB6C47ECFB6E5736
:100E7800EEFB6E6700BD00BF2DE9F14F87B0FFF7AD
:100E88006FFFDDF81C8008F1200888E8FF00FFBC30
:100E980087E87F08BDE8F08F30B44FF0000310F802
:100EA800014B11F8015B013A84EA050443EA0403A3
:100EB800F5D1A3F101034FEAD37030BC704700BFEE
:100EC8004FF0000310F8012B013943EA0203F9D16E
:100ED800A3F101034FEAD370704700BF30B411F893
:100EE800014B12F8015B6C4000F8014B013BF6D155
:100EF80030BC70472DE9F04F90E8F00F00F140004A
:100F08004FF0040E59E0F0B4826BC36B04680525FA
:100F1800242687593C444FEA724787EAF24787EA12
:100F280092273C4442684FEAF21787EAB24787EAB9
:100F3800D2073C4440F8044B032D08BF6FF01B0652
:100F480087593A444FEA734787EAF34787EA932772
:100F58003A4443684FEAF31787EAB34787EAD30767
:100F68003A4440F8042B87593B444FEA744787EAD0
:100F7800F44787EA94273B4444684FEAF41787EA22
:100F8800B44787EAD4073B4440F8043B013DC0D14D
:100F9800A0F13C00076A3C444FEA724787EAF247EF
:100FA80087EA92273C4402684FEAF21787EAB24779
:100FB80087EAD2073C44C463F0BC4FF0020288EAD7
:100FC800781C8CEAF84C0BEBBC1C8AEA090303EA90
:100FD800080383EA0A039C4450F8043B9C4451F8F4
:100FE800043B9C44674444EA050B0BEA060B04EAFD
:100FF80005034BEA030BE34484EAF42383EA3453FE
:101008000BEBB30B87EA771C8CEAF74C0AEBBC1C9A
:1010180089EA080303EA070383EA09039C4450F8B2
:10102800043B9C4451F8043B9C4466444BEA040A44
:101038000AEA050A0BEA04034AEA030AE2448BEACD
:10104800FB2383EA3B530AEBB30A86EA761C8CEA55
:10105800F64C09EBBC1C88EA070303EA060383EA9B
:1010680008039C4450F8043B9C4451F8043B9C44BE
:1010780065444AEA0B0909EA04090AEA0B0349EA42
:101088000309E1448AEAFA2383EA3A5309EBB309EC
:1010980085EA751C8CEAF54C08EBBC1C87EA06034C
:1010A80003EA050383EA07039C4450F8043B9C4485
:1010B80051F8043B9C44644449EA0A0808EA0B08CE
:1010C80009EA0A0348EA0308E04489EAF92383EABB
:1010D800395308EBB30884EA741C8CEAF44C07EB28
:1010E800BC1C86EA050303EA040383EA06039C445E
:1010F80050F8043B9C4451F8043B9C44E34448EAC0
:10110800090707EA0A0708EA090347EA03076744E1
:1011180088EAF82383EA385307EBB3078BEA7B1C8A
:101128008CEAFB4C06EBBC1C85EA040303EA0B03C0
:1011380083EA05039C4450F8043B9C4451F8043B63
:101148009C44E24447EA080606EA090607EA080357
:1011580046EA0306664487EAF72383EA375306EB31
:10116800B3068AEA7A1C8CEAFA4C05EBBC1C84EAC2
:101178000B0303EA0A0383EA04039C4450F8043B84
:101188009C4451F8043B9C44E14446EA070505EABF
:10119800080506EA070345EA0305654486EAF623D7
:1011A80083EA365305EBB30589EA791C8CEAF94CD6
:1011B80004EBBC1C8BEA0A0303EA090383EA0B036A
:1011C8009C4450F8043B9C4451F8043B9C44E04444
:1011D80045EA060404EA070405EA060344EA0304A8
:1011E800644485EAF52383EA355304EBB304013AF2
:1011F8007FF4E5AEA0F14000BEF1010E7FF483AEAE
:10120800A0F1400C9CE80F00001949199219DB194C
:10121800ACE80F009CE80F004044494452445B444A
:10122800ACE80F00BDE8F08F2DE9F00791E8F8076A
:10123800B2E802105B1854EB0C04B2E802104D41FE
:1012480056EB0C06B2E802104F4158EB0C08B2E816
:10125800021059EB01095AEB0C0A8941B3F1FF332B
:1012680074F1FF3475F1FF3576F1000677F1000768
:1012780078F1000879F101097AF1FF3A51F100019A
:101288005B184C414D4156F1000657F1000758F1E3
:10129800000859EBD1795AEB010A80E8F807BDE854
:1012A800F00770472DE9F00791E8F807B2E8021057
:1012B8005B1A74EB0C04B2E802108D4176EB0C0655
:1012C800B2E802108F4178EB0C08B2E8021079EB13
:1012D80001097AEB0C0A89415B184C414D4156F1E2
:1012E800000657F1000758F1000859EBD1795AEB7D
:1012F800010A80E8F807BDE8F007704718EB040812
:1013080059EB05095AEB060A5BEB070B5FF0000C7B
:101318004CF1000C18EB050859EB06095AEB070AC3
:101328005BEB070B50EB0C005FF0000C51EB0C0172
:1013380052EB0C0263414CF1000CB8EB070879F151
:1013480000097AF1000A7BEB040BA841B141A241E4
:10135800B3416CF1000CBBEB050BB041B941AA419C
:10136800BB416CF1000C4CF001068CF0020718EB45
:10137800060859EB6C095AEB6C0A7BEB6C0B70EBAB
:101388006C0471EB6C0572EB670653EB6C076CEB46
:101398006C0C18EB0C0059EB0C015AEB0C025BF1CE
:1013A800000354F1000455F1000556EBDC7657EBC9
:1013B8000C0770472DE9F14F87B0FFF715FCDDF8F2
:1013C8001080DDF81490DDF818A0FFF797FFBDE84E
:1013D800000FFFF793FF03B05DF8048B88E8FF0068
:1013E800BDE8F08F2DE9F14F87B0FFF7B9FCDDF8C4
:1013F8001080DDF81490DDF818A0FFF77FFFBDE836
:10140800000FFFF77BFF03B05DF8048B88E8FF004F
:10141800BDE8F08F81F0004102E000BF83F0004397
:1014280030B54FEA41044FEA430594EA050F08BF77
:1014380090EA020F1FBF54EA000C55EA020C7FEA3B
:10144800645C7FEA655C00F0E2804FEA5454D4EBB8
:101458005555B8BF6D420CDD2C4480EA020281EA82
:10146800030382EA000083EA010180EA020281EABA
:101478000303362D88BF30BD11F0004F4FEA01310C
:101488004FF4801C4CEA113102D0404261EB41011B
:1014980013F0004F4FEA03334CEA133302D05242A1
:1014A80063EB430394EA050F00F0A780A4F101045D
:1014B800D5F1200E0DDB02FA0EFC22FA05F2801897
:1014C80041F1000103FA0EF2801843FA05F359417D
:1014D8000EE0A5F120050EF1200E012A03FA0EFCFC
:1014E80028BF4CF0020C43FA05F3C01851EBE37126
:1014F80001F0004507D54FF0000EDCF1000C7EEB43
:1015080000006EEB0101B1F5801F1BD3B1F5001F80
:101518000CD349085FEA30004FEA3C0C04F101049F
:101528004FEA445212F5800F80F09A80BCF1004FC8
:1015380008BF5FEA500C50F1000041EB045141EA4A
:10154800050130BD5FEA4C0C404141EB0101013C13
:1015580028BFB1F5801FE9D291F0000F04BF014602
:101568000020B1FA81F308BF2033A3F10B03B3F1D4
:1015780020020CDA0C3208DD02F1140CC2F10C0264
:1015880001FA0CF021FA02F10CE002F11402D8BFC2
:10159800C2F1200C01FA02F120FA0CFCDCBF41EA8E
:1015A8000C019040E41AA2BF01EB0451294330BD5D
:1015B8006FEA04041F3C1CDA0C340EDC04F114043A
:1015C800C4F1200220FA04F001FA02F340EA030011
:1015D80021FA04F345EA030130BDC4F10C04C4F157
:1015E800200220FA02F001FA04F340EA0300294637
:1015F80030BD21FA04F0294630BD94F0000F83F481
:10160800801306BF81F480110134013D4EE77FEA63
:10161800645C18BF7FEA655C29D094EA050F08BFAF
:1016280090EA020F05D054EA000C04BF1946104690
:1016380030BD91EA030F1EBF0021002030BD5FEAD4
:10164800545C05D14000494128BF41F0004130BDFC
:1016580014F580043CBF01F5801130BD01F0004550
:1016680045F0FE4141F470014FF0000030BD7FEAC3
:10167800645C1ABF194610467FEA655C1CBF0B46BE
:10168800024650EA013406BF52EA033591EA030FD5
:1016980041F4002130BD00BF90F0000F04BF0021CD
:1016A800704730B54FF4806404F132044FF0000500
:1016B8004FF0000150E700BF90F0000F04BF002179
:1016C800704730B54FF4806404F1320410F00045DF
:1016D80048BF40424FF000013EE700BF42004FEADA
:1016E800E2014FEA31014FEA02701FBF12F07F4357
:1016F80093F07F4F81F06051704732F07F4208BF0E
:10170800704793F07F4F04BF41F40021704730B514
:101718004FF4607401F0004521F000411CE700BF60
:1017280050EA010208BF704730B54FF000050AE0E3
:1017380050EA010208BF704730B511F0004502D5E4
:10174800404261EB41014FF4806404F132045FEAE6
:10175800915C3FF4D8AE4FF003025FEADC0C18BF8F
:1017680003325FEADC0C18BF033202EBDC02C2F181
:10177800200300FA03FC20FA02F001FA03FE40EA13
:101788000E0021FA02F11444BDE600BF70B54FF017
:10179800FF0C4CF4E06C1CEA11541DBF1CEA1355F5
:1017A80094EA0C0F95EA0C0F00F0DEF82C4481EA5D
:1017B800030621EA4C5123EA4C5350EA013518BF7D
:1017C80052EA033541F4801143F4801338D0A0FB6A
:1017D80002CE4FF00005E1FB02E506F00042E0FB17
:1017E80003E54FF00006E1FB03569CF0000F18BF1D
:1017F8004EF0010EA4F1FF04B6F5007F64F54074C5
:1018080004D25FEA4E0E6D4146EB060642EAC62157
:1018180041EA55514FEAC52040EA5E504FEACE2EC4
:10182800B4F1FD0C88BFBCF5E06F1ED8BEF1004FC7
:1018380008BF5FEA500E50F1000041EB045170BD43
:1018480006F0004646EA010140EA020081EA030187
:10185800B4EB5C04C2BFD4EB0C0541EA045170BD83
:1018680041F480114FF0000E013C00F3AB8014F1FD
:10187800360FDEBF002001F0004170BDC4F1000446
:10188800203C35DA0C341BDC04F11404C4F12005C7
:1018980000FA05F320FA04F001FA05F240EA020022
:1018A80001F0004221F0004110EBD37021FA04F658
:1018B80042EB06015EEA430E08BF20EAD37070BD12
:1018C800C4F10C04C4F1200500FA04F320FA05F071
:1018D80001FA04F240EA020001F0004110EBD37073
:1018E80041F100015EEA430E08BF20EAD37070BDE3
:1018F800C4F1200500FA05F24EEA020E20FA04F3BC
:1019080001FA05F243EA020321FA04F001F000416A
:1019180021FA04F220EA020000EBD3705EEA430EDB
:1019280008BF20EAD37070BD94F0000F0FD101F00A
:101938000046400041EB010111F4801F08BF013C43
:10194800F7D041EA060195F0000F18BF704703F081
:101958000046520043EB030313F4801F08BF013D08
:10196800F7D043EA0603704794EA0C0F0CEA1355C4
:1019780018BF95EA0C0F0CD050EA410618BF52EA7E
:101988004306D1D181EA030101F000414FF0000084
:1019980070BD50EA410606BF1046194652EA430692
:1019A80019D094EA0C0F02D150EA013613D195EA06
:1019B8000C0F05D152EA03361CBF104619460AD14E
:1019C80081EA030101F0004141F0FE4141F4700158
:1019D8004FF0000070BD41F0FE4141F4780170BD48
:1019E80070B54FF0FF0C4CF4E06C1CEA11541DBFAD
:1019F8001CEA135594EA0C0F95EA0C0F00F0A7F8AF
:101A0800A4EB050481EA030E52EA03354FEA0131DB
:101A180000F088804FEA03334FF0805545EA1313EE
:101A280043EA12634FEA022245EA111545EA1065B6
:101A38004FEA00260EF000419D4208BF964244F14D
:101A4800FD0404F5407402D25B084FEA3202B61A6C
:101A580065EB03055B084FEA32024FF480104FF440
:101A6800002CB6EB020E75EB030E22BFB61A7546B4
:101A780040EA0C005B084FEA3202B6EB020E75EB47
:101A8800030E22BFB61A754640EA5C005B084FEAAF
:101A98003202B6EB020E75EB030E22BFB61A75467C
:101AA80040EA9C005B084FEA3202B6EB020E75EB87
:101AB800030E22BFB61A754640EADC0055EA060E48
:101AC80018D04FEA051545EA16754FEA06164FEA8B
:101AD800C30343EA52734FEAC2025FEA1C1CC0D137
:101AE80011F4801F0BD141EA00014FF000004FF0C4
:101AF800004CB6E711F4801F04BF01430020B4F185
:101B0800FD0C88BFBCF5E06F3FF6AFAEB5EB030C3C
:101B180004BFB6EB020C5FEA500C50F1000041EB39
:101B2800045170BD0EF0004E4EEA113114EB5C0406
:101B3800C2BFD4EB0C0541EA045170BD41F48011D9
:101B48004FF0000E013C90E645EA060E8DE60CEAE1
:101B5800135594EA0C0F08BF95EA0C0F3FF43BAFFE
:101B680094EA0C0F0AD150EA01347FF434AF95EAB5
:101B78000C0F7FF425AF104619462CE795EA0C0F99
:101B880006D152EA03353FF4FDAE1046194622E766
:101B980050EA410618BF52EA43067FF4C5AE50EA40
:101BA80041047FF40DAF52EA43057FF4EBAE12E730
:101BB8004FF0FF3C06E000BF4FF0010C02E000BF11
:101BC8004FF0010C4DF804CD4FEA410C7FEA6C5CF4
:101BD8004FEA430C18BF7FEA6C5C1BD001B050EA97
:101BE800410C0CBF52EA430C91EA030F02BF90EA82
:101BF800020F0020704710F1000F91EA030F58BF41
:101C0800994208BF90422CBFD8176FEAE37040F0A2
:101C1800010070474FEA410C7FEA6C5C02D150EA40
:101C2800013C07D14FEA430C7FEA6C5CD6D152EAFB
:101C3800033CD3D05DF8040B704700BF84461046C0
:101C480062468C461946634600E000BF01B5FFF7BF
:101C5800B7FF002848BF10F1000F01BD4DF808ED8F
:101C6800FFF7F4FF0CBF012000205DF808FB00BF60
:101C78004DF808EDFFF7EAFF34BF012000205DF8BA
:101C880008FB00BF4DF808EDFFF7E0FF94BF012007
:101C980000205DF808FB00BF4DF808EDFFF7CEFF08
:101CA80094BF012000205DF808FB00BF4DF808ED47
:101CB800FFF7C4FF34BF012000205DF808FB00BF18
:101CC8007BB972B90029BEBF00204FF0004106E081
:101CD80008BF00281CBF6FF000414FF0FF3000F034
:101CE80057B8ADF1080C6DE904CE002909DB002BCB
:101CF8001ADB00F069F8DDF804E0DDE9022304B03E
:101D08007047404261EB4101002B1BDB00F05CF89F
:101D1800DDF804E0DDE9022304B0404261EB410153
:101D2800524263EB43037047524263EB430300F0B4
:101D38004BF8DDF804E0DDE9022304B0404261EB32
:101D480041017047524263EB430300F03DF8DDF870
:101D580004E0DDE9022304B0524263EB4303704719
:101D680053B94AB9002908BF00281CBF4FF0FF31FA
:101D78004FF0FF3000F00CB8ADF1080C6DE904CE5F
:101D880000F022F8DDF804E0DDE9022304B0704732
:101D9800704700BF10F8012B11F8013B012A28BF3A
:101DA8009A42F7D0D01A7047034611F8012B03F86E
:101DB800012B002AF9D17047034613F8012B002A9A
:101DC800FBD1181A013870472DE9F04786468C4632
:101DD8000846089E154674461946002B40F0C180F7
:101DE8008542B2FA82F245D94AB1C2F1200300FA1B
:101DF80002FC954094402EFA03F343EA0C0C4FEA98
:101E0800154EA8B2230CBCFBFEF80EFB18CC08FB41
:101E180000F943EA0C43994528D9EB1808F1FF3734
:101E280004D2994502D9A8F102072B44A3EB090370
:101E3800A4B2B3FBFEFC0EFB1C330CFB00F044EA1F
:101E48000344A04214D92C190CF1FF3304D2A04248
:101E580002D9ACF102032C44241A43EA07401EB10C
:101E6800D440002334607360BDE8F0874746DDE75F
:101E78006346F1E792BB431B01214FEA154EAFB20F
:101E8800200CB3FBFEFC0EFB1C330CFB07F840EAEE
:101E98000343984561D9EB180CF1FF3004D29845FB
:101EA80002D9ACF102002B44A3EB0803A4B2B3FBA4
:101EB800FEFC0EFB1C330CFB07F744EA0344A74265
:101EC8004DD92C190CF1FF3304D2A74202D9ACF139
:101ED80002032C44E41B43EA0040C0E7C2F120039C
:101EE8009540944020FA03F12EFA03F34FEA154E79
:101EF8009040AFB20343B1FBFEFC0EFB1C10190C63
:101F08000CFB07F841EA0041884522D969180CF111
:101F1800FF3004D2884502D9ACF102002944A1EB74
:101F280008019BB2B1FBFEFC0EFB1C110CFB07F772
:101F380043EA01439F420ED9EB180CF1FF3104D25A
:101F48009F4202D9ACF102012B44DB1B41EA00415C
:101F580093E76046E3E76146F7E76046A4E7634630
:101F6800B8E7834206D916B9002108467CE7C6E9D6
:101F780000E0F9E7B3FA83F78FB9834201D37245DA
:101F880008D8BEEB020460EB030301209C461EB98F
:101F9800002169E73846FAE7C6E9004CF8E7C7F1D7
:101FA800200CBB400EFA07F522FA0CF42EFA0CF1BD
:101FB800BA401C4320FA0CF3B8404FEA14490143D5
:101FC8001FFA84FEB3FBF9F809FB18300B0C08FB69
:101FD8000EFA43EA00439A4540D9E31808F1FF3066
:101FE80004D29A4502D9A8F102002344A3EB0A03BC
:101FF80089B2B3FBF9F809FB183308FB0EFE41EA76
:1020080003418E452CD9611808F1FF3304D28E455F
:1020180002D9A8F10203214443EA0040A1EB0E01D2
:10202800A0FB02984145CE46434602D306D14D4512
:1020380004D20138B9EB020E68EB0403002EA7D0D6
:10204800B5EB0E0261EB030101FA0CFC22FA07F36F
:10205800F9404CEA0303C6E9003199E74046C5E771
:102068004346D9E70000000000222DE9F04184B082
:10207800114640F6034002AF0EF0FAF90446002874
:1020880040F0A8800DF0A0FD214641F203003A1D62
:102098000EF0EEF90446002840F09C807A68504D16
:1020A800D16805F17803D1F80100D1F8051003C310
:1020B80010460AF055FC214641F201003A1D0EF087
:1020C800D7F90446002840F085807868C3685A78B4
:1020D80085F870205A88A5F872201A7985F8712039
:1020E800B3F80720A5F87420B3F80530A5F87630C2
:1020F8000AF036FC214641F202003A1D0EF0B8F90A
:102108000446002866D1D7F804C005F18006DCF83B
:102118000C20531C4132344618685968083303C4EC
:1021280093422646F7D160460AF01AFC0FF016FCD7
:10213800044600284ED195F88A30990610D4022119
:10214800284A29482FF0D4F995F87C305A064FD4FC
:102158000121264A24482FF0CBF96FF0120439E008
:102168004FF0FF304FF0FF310DF04EFD06460028CE
:1021780000F04E8107210C300AF020FD6FF00903B2
:102188004FF0010803700A23C0F8024084710471FB
:10219800224680F80180C370314640F633400EF085
:1021A80067F90446B0B94FF0FF304FF0FF310DF03A
:1021B8002BFD0646002800F02B8141460C302EF0FE
:1021C800ACFD2246314640F631400EF051F9044646
:1021D8000028B9D020460837BD46BDE8F08100BFC9
:1021E800502600206CDB0400208004009ADB0400E9
:1021F800002142F203003A1D0EF03AF90446002885
:10220800E8D17A68A84BD168D1F80100D1F8051057
:1022180003C310460AF0A4FB214642F202003A1D0D
:102228000EF026F904460028D4D17E68F468B4F884
:1022380001309AB292B1E27882B1A5F80431E3781C
:10224800032B06D00322022100929848984A2EF0C8
:102258005FF8E2789748114633F0EFFE30460AF00F
:102268007FFB1F2395F87C60A5F8203116F0200627
:1022780019D14FF0FF304FF0FF310DF0C5FC044687
:10228800002800F0C58002210C300AF097FC0123D9
:10229800214603704670324640F66D400EF0E8F86D
:1022A8000446002896D195F89C301B0712D50021CA
:1022B80042F21C003A1D0EF0DBF80446002889D1D2
:1022C8007868C368D3F80120D3F80530C5E9382306
:1022D8000AF046FB95F8D8309E0623D53846B91C37
:1022E8000EF0D2F9044600287FF474AF4FF0FF30A7
:1022F8004FF0FF310DF088FC0646002800F088807A
:1023080004210C300AF05AFC3B88224603807B8863
:102318003146438042F224000EF0AAF80446002811
:102328007FF458AF95F8D8305C0610D5002142F2FA
:102338002A003A1D0EF09CF8044600287FF44AAFA4
:102348007868C3685B7885F822310AF009FB4FF09A
:10235800FF304FF0FF310DF057FC0446002857D0EE
:1023680008210C300AF02AFC95F8D81040F2022314
:1023780011F0400F08BF0323024688074CBF43F003
:102388002C0043F00C008B0695F8D93048BF40F07C
:10239800400013F0090F18BF40F40060CE0748BF93
:1023A80040F0100000212FF0BDF82146002242F233
:1023B80001000EF05DF8044600287FF40BAF95F895
:1023C8007C30B5F80411980625D4C9B941F2050046
:1023D8003A1D0EF04DF8044600287FF4FBAEB5F820
:1023E80004317C684BB9E368B3F80120A5F80421EF
:1023F8009A883048114633F020FE20460AF0B0FA99
:102408004FF0FF304FF0FF310DF0FEFB044660B98E
:102418006FF06804DEE60029F2D10121264A23483C
:102428002FF066F86FF00404D4E608210C300AF0A7
:10243800C5FB95F8D8300246D9072AD44FF0005189
:102448001E482FF06FF82146002240F601400EF09A
:102458000FF8044600287FF4BDAE01463A1D4FF63A
:1024680001400EF005F868B3154A02210F482FF015
:102478003FF82FF049FA044600287FF4ABAE10F07D
:10248800A9FF044600287FF4A5AE0DF0E3FD04463D
:10249800A0E603A1D1E90001D3E700BFAFF30080B4
:1024A8009088000200800020282700202080040057
:1024B800BEDB04005827002004DC0400108800025A
:1024C80027DC04007B686E46DC688AB0B4F801300B
:1024D800032B96BF424A434952F8231002AAD361FC
:1024E8004FF4007340481384404BC2E9050142F899
:1024F800103F4FF413513E482FF009F8B4F801206B
:10250800B546022AB4F8033049D1052B47D8394AD1
:1025180052F823106E468AB002AAD3614FF40073B2
:1025280035481384314BC2E9050142F8103F4FF496
:1025380013512F482EF0EBFFB546637994F806C087
:10254800032B98BF2D4AB4F80760D4F809006C46ED
:102558008CB094BF52F82310224902AAC2E9073C62
:102568004FF40073DFF898E09385264BC2E905E144
:10257800C2E909604FF4735142F8103F1C482EF02D
:10258800C6FFA54678680AF0EBF900214FF602402D
:102598003A1D0DF06DFF044618B11B4A65E7114955
:1025A800B8E77868C368B3F80130A5F8C1300AF015
:1025B800D7F995F8C1305B077FF55BAF21464FF639
:1025C80003403A1D0DF054FF08B1104A4DE77868F2
:1025D800C3685B7885F8C0300AF0C2F949E700BFE4
:1025E800F087040069D804004BDC040004000001F3
:1025F80020800400D887040064DC0400C887040035
:102608007CDC040007000001A9DC0400D2DC040023
:10261800022A70B504460E461D4603D87ABB6FF0F1
:1026280085004EE0052A3AD00329F8D8072AF6D1C2
:102638005B682D682648D917C5FB0031012B71F15D
:10264800000230DB00F56E1000F65D70181841F1DD
:1026580000011DA3D3E90023FFF732FB83B2022B4D
:1026680029D9042B29D9082BD9D80222194B20465D
:10267800BDE8704003EB8203997831F004BA022E6A
:1026880019881CD8B1F5006F19D2022A4FF002033D
:1026980014BF23222022BDE8704031F0E8B902239C
:1026A80025222988F7E70C48181861F1000106A3CC
:1026B800D3E90023D0E70022D8E70122D6E76FF05C
:1026C800150070BDAFF300803AA39500000000002C
:1026D80040420F00BA940400632EB5FF00000000CA
:1026E8002DE9F04114460569B9B9B5F90000297B0F
:1026F800714D80FB0101A0FB050647F6FF72002320
:1027080005FB0161FFF7DCFA00236C4AFFF7D8FAF2
:10271800206062600020BDE8F0810139062900F2DE
:10272800C280DFE801F004070A4865686B00B5F964
:102738000200DCE7B5F90400D9E7B5F90000297B08
:102748005D4E80FB0101A0FB060747F6FF720023E0
:1027580006FB0171FFF7B4FA0023584AFFF7B0FAF5
:10276800C4E90002B5F90200297B47F6FF7280FB35
:102778000101A0FB0607002306FB0171FFF7A0FA81
:1027880000234E4AFFF79CFAC4E90202B5F9040097
:10279800297B47F6FF7280FB0101A0FB0605002399
:1027A80006FB0151FFF78CFA0023444AFFF788FA29
:1027B80020616261AEE7B5F906302A8A83FB0252CE
:1027C8003F4BA5FB035603FB026639A3D3E900235D
:1027D80028463146FFF774FA002320603146284620
:1027E800384AFFF76DFA0023344AFFF769FA90E791
:1027F800B5F90830E1E7B5F90A30DEE7B5F9067052
:102808002B8A2F4E87FB0373A7FB067806FB0388EA
:1028180027A3D3E9002338464146FFF751FA00239E
:10282800206041463846274AFFF74AFA0023234AE0
:10283800FFF746FA6260B5F908702B8A87FB0373C5
:10284800A7FB067806FB038819A3D3E900233846BB
:102858004146FFF735FA0023A06041463846194A39
:10286800FFF72EFA0023154AFFF72AFAE260B5F9B6
:102878000A302A8A83FB0252A5FB065306FB02365E
:102888000BA3D3E9002328463146FFF719FA0023A2
:102898002061314628460B4AFFF712FA0023074AFF
:1028A800FFF70EFA85E76FF0850034E7AFF3008095
:1028B800006BC53F5D0500003AA3950040420F003C
:1028C800D8EF2F004CFF59002DE9FF4705469046E9
:1028D8000C46D0F8109021B91AB9002004B0BDE810
:1028E800F0870123402128460DF10E0231F012FB3A
:1028F8000028F3D101237D2128460DF10F0231F084
:1029080009FB0028EAD1FCB9B8F1000FE5D099F825
:102918000D20D8F80030072A00F25881102B00F05B
:10292800768100F36881013B072B00F27881072B41
:1029380000F27581DFE813F06901670173015D0139
:102948007301730173016D016068FEF7B5FEB6A3EC
:10295800D3E90023FFF744F8064620680F46FEF740
:10296800ABFE02460B4630463946FEF759FD9DF848
:102978000E400022AE4B06460F469DF80FA004F00D
:10298800F004FFF789F940B1002230463946A94BD7
:10299800FFF76EF9002840F01381002230463946CF
:1029A800A44BFFF779F940B1002230463946A24BD3
:1029B800FFF75EF9002840F0FD80002230463946D6
:1029C8009D4BFFF769F940B10022304639469B4BD1
:1029D800FFF74EF9002840F0E780002230463946DC
:1029E800964BFFF759F940B1002230463946944BCF
:1029F800FFF73EF9002840F0D180002230463946E2
:102A08008F4BFFF749F940B10022304639468D4BCC
:102A1800FFF72EF9002840F0BB80002230463946E7
:102A2800884BFFF739F940B1002230463946864BCA
:102A3800FFF71EF9002840F0A580002230463946ED
:102A4800814BFFF729F940B10022304639467F4BC8
:102A5800FFF70EF9002840F08F80002230463946F3
:102A68007A4BFFF719F938B1002230463946784BCE
:102A7800FFF7FEF8002879D1002230463946744B1A
:102A8800FFF70AF938B1002230463946714BFFF793
:102A9800EFF8002864D10022304639466D4BFFF725
:102AA800FBF838B10022304639466B4BFFF7E0F8A7
:102AB80000284FD1002230463946674BFFF7ECF823
:102AC80030B1002230463946644BFFF7D1F8D8BB05
:102AD800002230463946614BFFF7DEF878B30C2008
:102AE80044F00C044AF0040A44F080048DF80FA066
:102AF8008DF80E4089F80D00B8F1000F7FF407AF8C
:102B08000123402128460DF10E0231F032FA002847
:102B18007FF4E4AE4FF4E17031F0FAF99DF80F302C
:102B28007D2103F00F038DF80F304FF47A73284698
:102B380000930DF10F02012331F022FACEE60AF0DC
:102B4800FB0A04F07F04D1E70B2044F00B044AF0A1
:102B5800040AC9E70A2044F00A044AF0040AC3E751
:102B6800092044F009044AF0040ABDE7082044F0AB
:102B780008044AF0040AB7E7072044F007044AF0BB
:102B8800040ADEE7062044F006044AF0040AD8E7FF
:102B9800052044F005044AF0040AD2E7042044F072
:102BA80004044AF0040ACCE7032044F003044AF082
:102BB800040AC6E7022044F002044AF0040AC0E707
:102BC800012044F001044AF0040ABAE7022B1AD0A3
:102BD800042B1AD0012B0CBF022303239DF80E20CF
:102BE8001B0122F0300203F0300313438DF80E303E
:102BF80086E70223F2E7402B0DD0802B0DD0202B47
:102C08000DD10523EAE70123E8E70023E6E70423DB
:102C1800E4E70323E2E70623E0E70723DEE76FF0B4
:102C280085005BE6AFF300800000000080842E4141
:102C38000000E93F0000F93F00000940000019408A
:102C48000000294000003940000049400000594078
:102C58000000694000007940000089400000994068
:102C68002DE9FF47054690460C46D0F8109021B94B
:102C78001AB9002004B0BDE8F08701234221284694
:102C88000DF10E0231F046F90028F3D101237D2120
:102C980028460DF10F0231F03DF90028EAD1A4B918
:102CA800B8F1000FE5D0D8F80030022B00F0F7801B
:102CB800043B18BF01235B009DF80E2022F0300270
:102CC80042EA03138DF80E309BE06068FEF7F4FCCF
:102CD80075A3D3E90023FEF783FE064620680F4656
:102CE800FEF7EAFC02460B4630463946FEF798FBEB
:102CF8009DF80E4000226E4B06460F469DF80FA029
:102D080004F0F004FEF7C8FF40B10022304639460F
:102D1800684BFEF7ADFF002840F0BB80002230462C
:102D28003946644BFEF7B8FF40B1002230463946B9
:102D3800614BFEF79DFF002840F0A5800022304639
:102D480039465D4BFEF7A8FF40B1002230463946B0
:102D58005A4BFEF78DFF002840F08F800022304646
:102D68003946564BFEF798FF38B1002230463946AF
:102D7800534BFEF77DFF002879D1002230463946B3
:102D88004F4BFEF789FF38B10022304639464D4B8C
:102D9800FEF76EFF002864D1002230463946494BC1
:102DA800FEF77AFF38B1002230463946464BFEF727
:102DB8005FFF00284FD1002230463946424BFEF7CC
:102DC8006BFF30B1002230463946404BFEF750FFCA
:102DD800D8BB0022304639463C4BFEF75DFF78B33E
:102DE8000D2044F00D044AF0020A44F0C0048DF8A6
:102DF8000FA08DF80E4089F80E00B8F1000F7FF48F
:102E080052AF0123422128460DF10E0231F0B1F8EC
:102E180000287FF42FAF4FF4E17031F079F89DF876
:102E28000F307D2103F00F038DF80F304FF47A73C4
:102E3800284600930DF10F02012331F0A1F819E79C
:102E48000AF0FD0A04F03F04D1E70C2044F00C041A
:102E58004AF0020AC9E70B2044F00B044AF0020AC0
:102E6800C3E70A2044F00A044AF0020ABDE7092031
:102E780044F009044AF0020AB7E7082044F00804BD
:102E88004AF0020AB1E7072044F007044AF0020AB0
:102E9800D8E7062044F006044AF0020AD2E70123E4
:102EA8000AE700BFAFF300800000000080842E41D5
:102EB80000003940000049400000594000006940C6
:102EC8000000794000008940000099400000A940B6
:102ED80030B50F4D89B003AC0FCD0FC42B6802225B
:102EE800236001240B4B0C49009403A80EF01AFC34
:102EF800034630B12146094A09482BF0C4FE09B0FF
:102F080030BD0321074A06482BF0BBFEF7E700BF98
:102F18008082040098830400A0830400E6940400DF
:102F2800488104000B95040010B5064A06480221A2
:102F38002BF0A7FEBDE8104040F26762002303486B
:102F480023F02EBF2C950400488104000839002086
:102F580010B510482CF0F8F80F4801F001F90F48A7
:102F68002CF0F2F801F044F9044670B1034601214F
:102F78000B480C4A2BF087FE21460B482CF0E4F84E
:102F8800BDE8104009482CF0DFB809482CF0DCF8FF
:102F9800F6E700BF559504006D310100ED96040079
:102FA80048810400789504009A950400D895040097
:102FB800B795040010B510482CF0C6F80F4801F07A
:102FC800E5F90F482CF0C0F801F03AFA044670B160
:102FD800034601210B480C4A2BF055FE21460B48AD
:102FE8002CF0B2F8BDE8104009482CF0ADB80948FB
:102FF8002CF0AAF8F6E700BFF3950400213201008F
:103008001996040048810400399604005E9604006D
:10301800A29604007E96040010B510482CF094F88F
:103028000F4801F011FB0F482CF08EF801F09EFBC1
:10303800044670B1034601210B480C4A2BF023FECD
:1030480021460B482CF080F8BDE8104009482CF0C8
:103058007BB809482CF078F8F6E700BFC096040062
:1030680071320100E69604004881040006970400C6
:103078002B9704006F9704004B97040010B5104875
:103088002CF062F80F4801F06BFC0F482CF05CF84C
:1030980001F0E6FC044670B1034601210B480C4AD6
:1030A8002BF0F1FD21460B482CF04EF8BDE81040FE
:1030B80009482CF049B809482CF046F8F6E700BF53
:1030C8008D9704003D330100B49704004881040043
:1030D800D5970400FB970400419804001C9804004D
:1030E80008B50B482CF030F80A482CF02DF84FF4AE
:1030F80070220023084822F0E1FE014620B1BDE815
:10310800084006482CF020B8BDE80840FFF7B6BFD5
:10311800609804007F980400D0300020989804003C
:1031280008B5302025F07CFF40B100238385054B8E
:10313800011D1868BDE808402BF0AABDBDE808408D
:10314800FFF7F2BE1C29002002460B46014822F078
:103158001DBB00BF50300020014822F0E7BB00BF74
:103168005030002010B58EB00DAB04930CAB039318
:103178000BAB02930AAB019309AB0093224908AB4E
:1031880007AA04462BF0D6F8072838D14FF0FF30AD
:103198004FF0FF31FFF7D8FF01231C4A089913703D
:1031A800079B03EB830303EB830301EB8301099B79
:1031B800518003EB83030A9903EB830301EB83013B
:1031C8000B9B918003EB83030C9903EB830301EBC7
:1031D80083010D9BD1809360FFF7BEFF0D9B07997C
:1031E80003930C9B0A4802930B9B01930A9B009341
:1031F800DDE908232BF0A8FF00200EB010BD214602
:1032080004482BF0A1FFF7E7BA980400D04E00203D
:10321800EA980400229904007FB505AB019304AB3A
:1032280000930F4903AB02AA2BF084F8042812D1AB
:103238004FF0FF304FF0FF31FFF786FF0122094BB7
:103248001A73029ADA81039A1A82049A5A82059AA0
:103258009A82FFF781FF002007B05DF804FB00BFEA
:1032680038990400D04E002000B597B015AB0993EB
:1032780014AB089313AB079312AB069311AB0593EA
:1032880010AB04930FAB03930EAB02930DAB0193FA
:103298000CAB009325490BAB0AAA2BF04BF80C2872
:1032A80040D14FF0FF314FF0FF30FFF74DFF0122C3
:1032B8001F4B0B999A750A9A02EB820202EB820263
:1032C80001EB82010C9A198302EB82020D9902EB41
:1032D800820201EB82010E9A598302EB82020F9956
:1032E80002EB820201EB8201109A998302EB8202BF
:1032F800119902EB820201EB8201129AD98302EB47
:103308008202139902EB820201EB8201149A19845A
:1033180002EB8202159902EB820201EB82015984C9
:10332800FFF71AFF002017B05DF804FB4D99040061
:10333800D04E002000B58BB009AB039308AB0293C5
:1033480007AB019306AB0093184905AB04AA2AF012
:10335800F1FF062826D14FF0FF314FF0FF30FFF77D
:10336800F3FE0123124A059982F82430049B03EBEB
:10337800830303EB830301EB8301069BD18403EBF7
:103388008303079903EB830301EB8301089B1185F2
:1033980003EB8303099903EB830301EB8301518555
:1033A800FFF7DAFE00200BB05DF804FB639E040013
:1033B800D04E002070B503788AB004460E4607AD9B
:1033C800032B20D8DFE803F002191B1D11492846FA
:1033D800FEF7EAFC059563781E210493A37830462E
:1033E8000393E3780C4A029323790193637900935A
:1033F800A3792AF073FF0AB070BD0849E7E70849C6
:10340800E5E70849E3E70A212846074A2AF066FF64
:10341800E0E700BF8F990400B19904009699040071
:103428009D990400A7990400FAFC0400F0B514461D
:1034380089B000AF0D462EF055FC3946FFF7BAFFAC
:10344800ACB96C468AB06A46144BD561C2E90537F7
:103458004FF400731384124B4FF41351114842F880
:10346800103F2BF012FCA5462437BD46F0BD6E4632
:103478008CB06B460C4AC3E90754C3E905270B4ACD
:103488004FF462515A620A4A06489A621A46094B30
:1034980042F8103F2BF0F9FBB546E5E7D499040054
:1034A8000400000148810400F299040037B20400C6
:1034B800000203050600000290B589B000AF0C4673
:1034C8002EF010FC3946FFF775FF8AB06A46094BA3
:1034D800D461C2E90537084B4FF443511362074BD7
:1034E80007485362074B42F8103F2BF0CEFB2437B6
:1034F800BD4690BD199A040037B2040000020204C8
:10350800488104000500000290B589B000AF0C4660
:103518002EF0E8FB3946FFF74DFF8AB06A46094BA3
:10352800D461C2E905374FF400731384064B4FF496
:103538001351064842F8103F2BF0A7FB2437BD462D
:1035480090BD00BF3F9A04000400000148810400B8
:1035580090B589B000AF0C462EF0C4FB3946FFF792
:1035680029FF8AB06A46094BD461C2E905374FF48E
:1035780000731384064B4FF41351064842F8103F6A
:103588002BF083FB2437BD4690BD00BF619A040031
:103598000400000148810400B0B588B000AF0C46B3
:1035A8002EF0A0FB3946FFF705FF6D468AB06A4644
:1035B800124BD461C2E90537114B124C1362124BFE
:1035C80012485362124B4FF4435142F8103F2BF00C
:1035D8005CFB2068AD4618B10EF0E8FF00232360BD
:1035E8000C4C206830B10EF0E1FF0023012023606D
:1035F80030F005FF2037BD46B0BD00BF769A040005
:1036080037B20400C84E00200002020448810400BA
:1036180005000002CC4E0020B0B588B000AF0C46C3
:1036280005460EF0DBFE124B186028462EF05AFBBA
:103638003946FFF7BFFE6D468AB06A460D4BD46126
:10364800C2E905374FF400730B4C13840B4B20462B
:1036580042F8103F4FF413512BF017FB0321AD46EE
:103668002046074A2BF00DFB2037BD46B0BD00BFF2
:10367800C84E0020619A040048810400040000013B
:10368800999A0400B0B588B0044600AFB1B16C4651
:103698008AB06A46194B1A48C2E90531194B4FF4EA
:1036A8001151D36140F201331384174B42F8103F94
:1036B8002BF0EBFAA5462037BD46B0BD2EF012FB25
:1036C8003946FFF777FE6D4688B06A460F4B4FF4D0
:1036D800E651C2E905374FF4007393830C4B084851
:1036E80042F8103F2BF0D1FA2046AD460EF076FE98
:1036F800084B1860012030F07FFEDCE7C89A040010
:103708004881040037B2040004000001E99A04006B
:1037180003000001CC4E002080B588B000AF2EF029
:10372800E1FA3946FFF746FE88B06A46084B4FF47F
:10373800E651C2E905374FF400739383054B0648F9
:1037480042F8103F2BF0A1FA2037BD4680BD00BFDC
:10375800F69A040003000001488104002DE9F041B5
:1037680014460D46C6B02EF0BDFA01A9FFF722FE99
:10377800224601A915482AF07FFD15482AF07CFD4C
:103788002E46DFF850806719BE4218D112482AF039
:1037980085FDF02C28BFF0242946224609A833F0DD
:1037A80052FD04F58C730DEB0304002309A90B48A3
:1037B80004F8F43C2AF060FD46B0BDE8F0814046CC
:1037C80016F8011B2AF058FDDEE700BF0C9B040029
:1037D800219B0400279B04005D9D04002D9B040091
:1037E80070B50B780C46052B00F2B480DFE803F0C7
:1037F800039E2F7486558B68002B00F0AB804868B9
:10380800002800F0A780544A1368F3B1181F00235A
:103818001360524A136032F0B3FD0022002350486F
:1038280022F03CFA002800F095804E4B828D011D55
:1038380018682BF036FA002800F08C804A4A0221DA
:10384800BDE8704049482BF01CBA0438E3E7C96862
:1038580047482AF011FD6568E1682B8D454E1944EB
:1038680089B2454829852AF007FD3378002B71D1A4
:103878002A8D6368134413F8013C0A2B01D00D2BE1
:1038880068D13E482AF00AFD01233370354B186889
:103898008368BDE870405B691847002438482AF0FF
:1038A800FDFC344B30201C7025F0BAFB38B12D4B91
:1038B8008485011DBDE8704018682BF0E9B9314ACC
:1038C8002A4802212BF0DDF9BDE8704040F267621A
:1038D80000232D4823F064BA302025F0A1FB0146CF
:1038E80050B1002383851F4B2822BDE8704018681B
:1038F800043183681B691847224AA0E723482AF045
:10390800CDFC6368198D1C1F41B121482AF0B4FC15
:103918002146BDE870401F4832F076BB1E482AF0A9
:10392800BDFC2046BDE8704032F02ABD0A4A136843
:103938000BB94B6813600949A368086803440B6016
:103948001168BDE870400A8D1944D21A054B1868F1
:103958002BF0A7B970BD00BFB44E0020B04E0020B8
:103968004C3100201C290020379B040048810400AA
:10397800559B04004E7D00207A9B0400A39B040005
:10398800CD9B04002C95040008390020FC9B040002
:10399800179C040030310020389C040008B5054805
:1039A8000321054A2BF06DF9BDE80840034822F0D1
:1039B800ABBE00BF48810400599C0400B84E0020EB
:1039C800F8B51E4C0546206800AF002833D00D40DE
:1039D800EA0716D52EF0E3F96E4688B023686A46E2
:1039E80017491848C2E9051303234FF4C65142F892
:1039F800103F2BF04AF9B54620680EF0D7FD00239A
:103A08002360AB0717D520682EF0DAF96D4688B029
:103A180023686A460C490B48C2E9051303234FF48F
:103A2800C65142F8103F2BF030F9AD4620680EF031
:103A3800BDFD00232360BD46F8BD00BFC84E002071
:103A4800A19C040048810400B89C04002DE9F04FB3
:103A58008DB04FF0FF324FF0FF33384822F02EFA86
:103A680030220021684633F015FC354FDFF8D4804A
:103A7800DFF8D4904FF0FF334FF0FF32384622F092
:103A88000DF90546818D40462AF0F6FBBDF82C401D
:103A9800AB8DC4F128049C4228BF1C4600261CB9E3
:103AA800284632F06DFCE5E7BDF82C00311D0430E6
:103AB80029442246684433F0C6FBBDF82C1026443E
:103AC800214489B22729ADF82C1008D801F1300318
:103AD8006B4413F82D3C0A2B01D00D2B1DD1484601
:103AE8002AF0CAFB0024DFF864B00DF1030ABDF820
:103AF8002C30A34217DC16482AF0D0FB0020BDF872
:103B08002C2001A906F060FEA0B10221114A12483A
:103B18002BF0B7F80023ADF82C30AC8DA41B282C63
:103B280028BF2824BBE758461AF8011F2AF0A4FB2F
:103B38000134DCE709482AF0B1FBEBE7D03000207C
:103B480030310020D09C0400F99C0400279B04001D
:103B58005D9D0400159D0400488104003D9D0400FE
:103B680008B50B482BF0F0FA0A482BF0EDFA4FF4A1
:103B780070220023084822F0A1F9014620B1BDE8CF
:103B8800084006482BF0E0BABDE80840FFF7E0B966
:103B98005F9D04007F980400D030002098980400AE
:103BA8002DE9F0438348ADF50D7D2BF0CDFA4FF0AC
:103BB800FF324FF0FF33804822F080F97F482BF026
:103BC800C3FA7F4E7F4C4FF4C030002124F0DCF95B
:103BD8003368002BF7D04FF0FF304FF0FF31FFF77D
:103BE800B3FA25781DB36421B4F90650A768B4F96F
:103BF8000220059795FBF1F701FB1755B4F904006E
:103C08002DB292FBF1F3CDE9037590FBF1F501FBC1
:103C1800132201FB150012B200B2CDE90150009247
:103C28004FF40071684A0CA82AF058FB0546237B1C
:103C380093B1B4F914300CA80293B4F91230C5F555
:103C480000710193B4F91030284400935F4AB4F925
:103C58000E302AF043FB0544A37D002B61D064227B
:103C6800B4F92280B4F920E098FBF2F902FB198834
:103C78000FFA88F8B8F1000FB8BFC8F100081FFAAA
:103C880088F8CDE909989EFBF2F802FB18EE0FFAC6
:103C98008EFEBEF1000FB4F91EC0B8BFCEF1000E03
:103CA8001FFA8EFECDE9078E9CFBF2FE02FB1ECCAE
:103CB8000FFA8CFCBCF1000FB4F91C70B8BFCCF142
:103CC800000C1FFA8CFCCDE905EC97FBF2FC02FB1B
:103CD8001C773FB2002FB4F91A00B8BF7F42B4F97D
:103CE8001810BFB2CDE903C790FBF2F791FBF2F3CE
:103CF80002FB170002FB131100B2002809B2B8BF7B
:103D08004042002980B2B8BF4942CDE9017089B26A
:103D18000CA800912844C5F500712D4A2AF0DEFA56
:103D2800054494F8243073B36427B4F92A00B4F92D
:103D3800281090FBF7FC07FB1C0000B20028B8BF56
:103D48004042B4F9262080B2CDE903C091FBF7F0D8
:103D580092FBF7F307FB101107FB132209B20029A6
:103D680012B2B8BF4942002A89B2B8BF5242CDE95F
:103D7800010192B20CA80092C5F500712844154AB9
:103D88002AF0ACFA0544FFF7E7F9002D7FF71BAFDF
:103D98000A236F1C0CA93068BAB24B5506F014FD03
:103DA800014618B10C482BF0CFF90CE739460B48FF
:103DB800F9E700BF7A9D0400D03000209D9D0400E3
:103DC800CC4E0020D04E0020C49D0400FA9D040073
:103DD800159E04005E9E0400819E0400A39E0400BC
:103DE80008B50B482BF0B0F90A482BF0ADF94FF4A1
:103DF80070220023084822F061F8014620B1BDE88E
:103E0800084006482BF0A0B9BDE80840FFF7D2B833
:103E1800C29E04007F980400D030002098980400C7
:103E280008B50B482BF090F90A482BF08DF94FF4A0
:103E380070220023084822F041F8014620B1BDE86D
:103E4800084006482BF080B9BDE80840FFF7E4B801
:103E5800E09E04007F980400D03000209898040069
:103E6800F8B57E481BF0ECFE034620B101217C4AE0
:103E78007C482AF008FF1BF0B1FE034620B101215F
:103E8800794A78482AF0FFFE784D286832F033F8EE
:103E980050B1002005F048FC40B1783006D0744A93
:103EA800012170482AF0EDFE2AF003FF302025F0AA
:103EB800B7F804460028F7D000236E4983856E487A
:103EC80022F036FE29688B681B6823B96B4E304692
:103ED80007F044FB2E60286883681B6823B92046D6
:103EE80032F04EFA664ADBE7002266499847002816
:103EF800F5D1302025F094F8064680B3031D184606
:103F08006149FDF751FF25220146B28528682AF04C
:103F1800C8FE074660B1204632F032FA304632F029
:103F28002FFA3B460121594A4E482AF0ACFEBBE71E
:103F38002868211D2AF0ACFE034658B954480FF0F2
:103F48000FFA034678B1534A012146482AF09BFEEE
:103F58000020F8BD0121504A42482AF094FE20462C
:103F680032F00EFAA0E74D480FF014FA034608B1F4
:103F78004B4AE9E70CF0D2FB002895D10321494AC6
:103F880038482AF07EFE00F013F9034600283AD09C
:103F98000221454A33482AF076FE00F0FDF903462F
:103FA800002836D00221414A2E482AF06CFE00F043
:103FB80051FB0346002832D002213D4A29482AF005
:103FC80062FE00F0D3FC034678B30221394A254843
:103FD8002AF059FE384821F0EDFE374821F0EAFE74
:103FE800354821F0E7FE344821F0E4FE324821F05C
:103FF800E1FE2CF07CFC314806F0DAFB0446D0B137
:1040080003462F4AA0E703212E4A16482AF039FE14
:10401800C3E703212C4A13482AF033FEC7E70321DC
:104028002A4A10482AF02DFECBE70321284A0D48DA
:104038002AF027FECEE72748274922F03DFA2548EF
:1040480022F062FB013404F0010100201BF07AFE2B
:1040580000214FF4004023F097FFF3E7C93901002E
:10406800FE9E0400488104001C9F04001C290020B7
:10407800379F0400293101000839002078830400A3
:104088004C9F0400E93701006C9F0400929F0400D4
:1040980004290020E29F0400BB9F0400F4280020AC
:1040A80018A0040053A0040069A00400E8A00400BC
:1040B80073A10400FCA10400D0300020E8280020EF
:1040C80090A20400AFA0040031A10400BCA1040028
:1040D80046A20400B84E0020D92E01001FB542F2B6
:1040E8001072836A41680393436993FBF2F3029366
:1040F80003690193C36893FBF2F3009391FBF2F217
:104108008368016802482AF0B7F805B05DF804FB37
:1041180063A3040070B504460025104E02460D2125
:1041280030682AF0D1FD306804F108020E212AF027
:10413800CBFD306804F1100210212AF0C5FD30686B
:104148001E21C4E90655C4E90855C4E90A5504F115
:1041580028022AF0B9FD284670BD00BF004F002094
:10416800014B1860704700BFFC4E002038B505466B
:10417800A8B10C4B186890B183684021DB68984758
:10418800044638B101210346074A08482CF0B6F81E
:10419800204638BD2846BDE83840FFF7BBBF6FF062
:1041A8001504F5E7004F00209EA30400C87F040013
:1041B80008B50A480A4B186031F09DFE38B909481D
:1041C8000121094A2CF091F86FF0120008BD05484A
:1041D8000321064A2CF089F80020F7E70879040043
:1041E800004F0020C87F0400B9A30400D4A3040032
:1041F800F0B5384BB5B01B68002B5FD00321364AA9
:1042080036482CF072F836482AF048F800214FF466
:10421800203023F0B9FE33482AF040F80321324A0F
:104228002E482CF062F831482AF038F8304D314EDB
:10423800314F28462AF032F806A8FFF797FF0028E2
:1042480038D138462D4C2AF029F806A8FFF746FF42
:1042580023684BB342F21072129B802105930B9B8B
:1042680014A893FBF2F3002BB8BF5B4204930A9B9C
:104278000393099B93FBF2F3002BB8BF5B420293B5
:10428800089B0193079B93FBF2F3002BB8BF5B429B
:1042980000931B4A069B2AF021F8431E7E2B03D865
:1042A80081B2236814A8984700214FF4A02023F076
:1042B8006BFEBEE7304629F0F1FFF5E70121114A10
:1042C80006482CF012F8104829F0E8FF6FF01500A6
:1042D80035B0F0BD004F00202DA40400C87F0400B5
:1042E80041A404005FA4040081A40400A4A4040061
:1042F800D6A404004DA50400F1A40400FC4E00203F
:104308001CA50400FBA3040012A4040070B5194EF8
:1043180002460546132130682AF0D9FC044638B114
:104328000346154A012115482BF0E8FF204670BDC9
:104338001421306805F108022AF0C9FC044610B1BE
:104348000F4A0346EEE71521306805F110022AF0FE
:10435800BEFC044610B10B4A0346E3E7122130685D
:1043680005F118022AF0B3FC04460028DED0064AFC
:104378000346D7E7084F00206BA50400B87F040068
:1043880089A50400A9A50400C8A50400014B18606C
:10439800704700BF044F002010B50E480E4C206037
:1043A80031F0A9FD50B901210C4A0D482BF09DFFB1
:1043B8000C482AF0C9FE6FF0120010BD03210A4A0A
:1043C80007482BF092FF2368084819682AF0BCFEBA
:1043D8000020F2E788790400084F0020E5A50400D2
:1043E800B87F0400FDA5040016A6040043A6040037
:1043F80038B50F4B0546186830B90E482AF0A4FEA8
:104408006FF01504204638BD002DF9D0836840218F
:10441800DB689847044630B101210346064A07483D
:104428002BF06CFFEEE72846BDE83840FFF76EBF7B
:10443800084F002062A6040081A60400B87F04008B
:10444800F0B52C4BADB01B68002B4CD003212A4A89
:104458002A482BF04AFF2A482AF076FE00214FF41A
:10446800803023F091FD27482AF06EFE0321264A6A
:1044780022482BF03AFF25482AF066FE244D254EA7
:10448800254F28462AF060FE04A8FFF7B1FF30BB8D
:1044980038462AF059FE0A9B204C0093069A089B3E
:1044A80004991F482AF050FE236893B10A9B802183
:1044B8000293089B1B4A0193069B0CA80093049B3C
:1044C80029F00CFF431E7E2B03D881B223680CA869
:1044D800984700214FF4E02023F056FDD1E73046FD
:1044E8002AF032FEF5E710482AF02EFE6FF015008C
:1044F8002DB0F0BD084F0020C2A60400B87F04000C
:10450800D9A6040001A7040027A704004DA70400AA
:1045180083A70400EAA70400A8A70400044F00200A
:10452800A1A60400D4A7040062A6040042F21073F6
:1045380000B5C16A8BB091FBF3F10029B8BF4942BD
:1045480042680891816A92FBF3F20791416A91FBF4
:10455800F3F10029B8BF49420691016A0591C16982
:1045680091FBF3F10029B8BF494204918169039195
:10457800416991FBF3F10029B8BF494202910169F1
:104588000191C16891FBF3F10029B8BF494200913C
:10459800002A83680168B8BF524203482AF0D4FD54
:1045A8000BB05DF804FB00BF0CA80400F0B5224E68
:1045B80004468DB030686F4683683A4603211B690C
:1045C8009847054640B103461C4A01211C482BF078
:1045D80095FE28460DB0F0BD3068836806AE3246B9
:1045E80007211B699847054610B1164A0346ECE7B0
:1045F80004F1080397E8030084E80300DDE90201F9
:1046080083E80300DDE9040104F1100383E80300F3
:1046180096E8030004F1180383E80300DDE90801C4
:1046280004F1200383E8030028340CAB13E90300EA
:1046380084E80300CDE700BF104F002057A804000E
:10464800D87F040074A80400014B1860704700BFAD
:104658000C4F0020F0B52A482A4D87B0286031F069
:104668004AFC58B90121284A28482BF03EFE284820
:104678002AF06AFD6FF0120007B0F0BD0024022393
:1046880064270126CDE9003428686B4607220321F8
:10469800CDE90274CDE904642AF01CFB286804AB58
:1046A800062203212AF016FB2246286802AB0321C2
:1046B8002AF010FB07224FF4FA731146CDE90034B3
:1046C80028686B46CDE90274CDE904642AF002FB40
:1046D800286804AB062207212AF0FCFA22460721A3
:1046E800286802AB2AF0F6FA03210A4A07482BF099
:1046F800FCFD2B68084819682AF026FD2046BBE710
:1047080028790400104F002090A80400D87F0400E6
:10471800A8A80400C1A80400ECA8040038B50F4BF1
:104728000546186830B90E482AF00EFD6FF01504DA
:10473800204638BD002DF9D083684021DB689847B2
:10474800044630B101210346064A07482BF0D6FD3E
:10475800EEE72846BDE83840FFF728BF104F002095
:104768000BA9040081A60400D87F0400F0B5434BD0
:10477800D9B01B68002B7AD00321414A41482BF05D
:10478800B4FD41482AF0E0FC00214FF4803023F0CA
:10479800FBFB3E482AF0D8FC03213D4A39482BF060
:1047A800A4FD3C482AF0D0FC3B4D3C4E3C4F2846EB
:1047B8002AF0CAFC0CA8FFF7B1FF002853D13846ED
:1047C800384C2AF0C1FC0CA8FFF7B0FE2368002B78
:1047D80043D042F21073179A4FF4807192FBF3F2B0
:1047E800002AB8BF52420A92169A18A80992159A36
:1047F80092FBF3F2002AB8BF52420892149A079229
:10480800139A92FBF3F2002AB8BF52420692129A08
:104818000592119A92FBF3F2002AB8BF5242049211
:10482800109A03920F9A92FBF3F2002AB8BF5242F1
:1048380002920E9A01920D9A92FBF3F2002AB8BFE7
:1048480052420C9B0092184A29F048FD431EFE2B49
:1048580003D881B2236818A8984700214FF4403044
:1048680023F092FBA3E730462AF06EFCF5E70F48E9
:104878002AF06AFC6FF0150059B0F0BD104F002007
:104888002AA90400D87F040041A9040067A90400EC
:104898008DA90400B3A90400E9A90400EAA704004B
:1048A800A8A704000C4F00200CAA04000BA90400C0
:1048B8001FB542F210714369426893FBF1F3002B74
:1048C800B8BF5B420293036992FBF1F20193C3689C
:1048D80093FBF1F3002BB8BF5B420093002A836877
:1048E8000168B8BF524203482AF02EFC05B05DF8B3
:1048F80004FB00BF5DAA040070B5144E02460546CD
:10490800002130682AF0EFF9044638B10346104A0E
:10491800012110482BF0F2FC204670BD01213068BF
:1049280005F108022AF0DFF9044610B10A4A0346E5
:10493800EEE70221306805F110022AF0D4F90446A6
:104948000028E9D0054A0346E2E700BF184F0020D7
:104958008BAA0400B07F0400A5AA0400BFAA040023
:10496800014B1860704700BF144F002037B5204C2A
:104978002048206031F0BFFA58B901211E4A1F486B
:104988002BF0B3FC1E482AF0DFFB6FF0120003B0D7
:1049980030BD206883685D686DB964230022206893
:1049A800CDE9003283681D68DDB90221154A134834
:1049B8002BF09BFC09E06B4600220321A847002846
:1049C800EBD1DDE900321343E7D003210E4A0B484F
:1049D8002BF08BFC23680D4819682AF0B5FB0020E2
:1049E800D5E76B460321A8470028EED0DDE700BFD6
:1049F800184F0020C8780400D9AA0400B07F04002A
:104A0800F2AA04000CAB04002DAB040063AB040055
:104A180038B50F4B0546186830B90E482AF094FB94
:104A28006FF01504204638BD002DF9D08368402169
:104A3800DB689847044630B101210346064A074817
:104A48002BF05CFCEEE72846BDE83840FFF754BF82
:104A5800184F002083AB040081A60400B07F040037
:104A6800F0B5354BADB01B68002B5DD00321334A40
:104A780033482BF03AFC33482AF066FB00214FF408
:104A8800803023F081FA30482AF05EFB03212F4A58
:104A98002B482BF02AFC2E482AF056FB2D4D2E4E83
:104AA8002E4F28462AF050FB06A8FFF7B1FF002832
:104AB80036D138462A4C2AF047FB06A8FFF7F8FEFD
:104AC80023683BB342F210720B9B802193FBF2F3F5
:104AD800002BB8BF5B4204930A9B0CA80393099B65
:104AE80093FBF2F3002BB8BF5B420293089B019340
:104AF800079B93FBF2F3002BB8BF5B420093194A64
:104B0800069B29F0EBFB431E7E2B03D881B223685A
:104B18000CA8984700214FF4802023F035FAC0E70D
:104B280030462AF011FBF5E70F482AF00DFB6FF02D
:104B380015002DB0F0BD00BF184F0020A7AB040032
:104B4800B07F0400BFAB0400F0AB040017AC040056
:104B58003EAC040074AC0400EAA70400A8A7040053
:104B6800144F00209BAC040087AB040010B5094C1F
:104B78000A44914200D110BD11F8013B5840030985
:104B8800E35C0001C0B243401809205C1B01DBB2A2
:104B98005840EEE7CFAC0400F8B50F4600293BD0EB
:104BA8000668012230462AF0D9F801460446304604
:104BB8002AF09CF8C3070DD4AF23184A184919489E
:104BC8002AF0D8FA394618482AF0D4FAAF211348FF
:104BD8002AF0C7FA214630462AF09EF825182946B9
:104BE800002230462AF082F82D1AAC420BD0B723A7
:104BF8000A4A0E490B482AF0BDFA39460C482AF0F1
:104C0800B9FAB721E3E7214630462AF08BF8214666
:104C1800BDE8F8402AF0C7B9F8BD00BFDFAC040012
:104C280002AD040013AD040030AD040068AD04000B
:104C38008EAD0400B2F5802F2DE9F04110D2042A80
:104C480028D843494FF40773424A43482AF092FA56
:104C580042482AF08FFA4FF407713E482AF081FA49
:104C68000823D21ACC1D114424F0070421F00701AF
:104C7800091B17294FEAD1060ED8394940F22523D6
:104C8800344A35482AF076FA34482AF073FA40F262
:104C98002521E2E70423E4E7002704603146304693
:104CA800A660E7602AF06DF80121421D8046304673
:104CB8002AF05EF89200D51DED082844B0423AD893
:104CC800B8F1FF3F3946A2F1100204F11000B8BF55
:104CD8003A4632F0DFFA2A46394620462AF03AF8B0
:104CE8003B463A46394620462AF00BF8A6EB05081B
:104CF8002046394601222AF015F8424629462AF06C
:104D080029F82B463A462946204629F0FAFF31462B
:104D180020462AF01FF843463A463146204629F0F5
:104D2800F0FF31462046012229F0FCFF2946BDE864
:104D3800F0412AF0F6B80B4940F23A23054A0648F2
:104D48002AF018FA05482AF015FA40F23A2184E7C1
:104D5800CAAD0400DFAC040013AD0400EBAD0400E1
:104D680004AE04002DAE040037B50B4615460446C4
:104D780048B914495E23144A14482AF0FBF95E2105
:104D880011482AF0EEF93AB911495F230E4A0F4843
:104D98002AF0F0F95F21F3E789B102688A4204D367
:104DA800C06801AA01F0C6FB18B16FF00B0003B090
:104DB80030BD2379019A9A40A3689B18F5D000204A
:104DC8002B60F4E787AE040058AE040013AD04006E
:104DD800A0AE040038B50B460446114658B91D4923
:104DE8004FF497731C4A1D482AF0C4F94FF4977181
:104DF80019482AF0B6F9C06848B9194940F22F1382
:104E0800154A16482AF0B6F940F22F11F0E7A268C1
:104E18004AB914494FF498730F4A10482AF0AAF96E
:104E28004FF49871E4E769B125688D420CD39A4232
:104E38000DD89A1A23791A41954208D9BDE8384005
:104E480001F020BC084638BD6FF01500FBE76FF095
:104E58000D00F8E787AE040058AE040013AD040057
:104E6800B9AE0400DAAE04002DE9F04F91B000931A
:104E780002F004030193C2F3C203013304938307CE
:104E880005460E46DDF86890029240F0FC81041D4C
:104E980030B1072909D86FF01B0011B0BDE8F08FB9
:104EA80001F007063444C6F108064FF000084FF039
:104EB800040B009B4746591E4FF0FF324346DA4623
:104EC800CDF80C800DB1009820600498002800F3FC
:104ED800DF809B48DDF800C0844503D399488445AA
:104EE800C0F0D680DDF808C0A4EB050E1CF0020F58
:104EF8004FEA9E0000F0E7804FF0000CD1E07A28DE
:104F080062D84B280FD847285ED829282DD82528BD
:104F180059D059D820287DD0A0F12309D9F1000310
:104F280043EB090376E04C382E284DD8DFE800F033
:104F3800724C4C4C4C4C4C4C4C4C4C4C4E4C4C4C81
:104F48004C4C4C4C4C5C4C4E4E5C5C5C724E6F4C0A
:104F5800724C184E184C4C817E4E4C4C4E4C7E0078
:104F6800002000234FF0040B3CE04FF0010E2A38DC
:104F7800C0B20EFA00F04FF6DA7E10EA0E0F49D1F1
:104F880010F0625E30D110F0010343D07046013C4E
:104F98005C44B4FBFBF40BFB04F4002D5ED0AAEBDD
:104FA800050EA644B6453FF676AF002868D1BAF19B
:104FB800040F43D1E14659F8040B2060CC464FF06A
:104FC800040A043426E0013A002323E011F8013CE6
:104FD8006C2B30D1002011F8023C6C2B0346C1D158
:104FE8004FF0080BDA46D2E70CF1070929F0070C55
:104FF800073424F00704FCE802AB35B105982044D7
:10500800B0423FF648AFC4E900AB002308344FF084
:10501800080BDA4611F8010F002800F0BC80002BBD
:105028007FF46DAF2528F5D1012301324FF0040B31
:10503800EFE7184695E700200346A8E7BAF1080FFE
:1050480040F09B800CF1070929F0070CFCE8029A54
:10505800C4E9009A4FF0080A0834DBE780B9BAF1CE
:10506800040F02D10CF10409A8E7BAF1080F40F0C7
:1050780084800CF1070929F0070909F1080CE9E710
:10508800E14604980138049059F8040B009019E798
:105098000298800748D54FF0010CA4EB050E4FEAA3
:1050A8009E00BEF5007F1DD327494FF41F73274A82
:1050B80027482AF05FF827482AF05CF84FF41F7158
:1050C80022482AF04EF80F2F0ED8002D46D007F1AF
:1050D800400CEC440CF8200C0CF8102C0398013010
:1050E800039020E00F2F0CD9174940F28123174A6B
:1050F80017482AF03FF818482AF03CF840F2812176
:10510800DEE7BDB107F1400EEE44C0B20EF8200C48
:105118000EF8102CBCF1000FE0D060F07F000EF804
:10512800200C08F101080137C5F10800CC46043409
:1051380005906FE7BCF1000F10D00136F3E700BF10
:1051480000750400BC450500821E050028AF040058
:1051580013AD040056AF040077AF0400019802367F
:105168000028E0D10098CDE906310592FCF724FE2D
:10517800DDE90631059A0644D5E740F2C623434ADD
:105188004349444829F0F6FF5146434829F0F2FFC5
:1051980040F2C62194E7631BB3F5806F0CD33C49FA
:1051A80040F2D223394A3B4829F0E4FF3B4829F032
:1051B800E1FF40F2D22183E71DB9A6F10804E01807
:1051C8006BE6019A9B0828602B709DF80C30C2B1E1
:1051D800EB7085F80280B8F1000F05D0002208A80E
:1051E800C5F1010C97420ED14FF0000AC5F1010339
:1051F8000DF1200902930DF1300B574512D1601BB8
:105208004BE66B70E5E710F8013B190608D50CEB87
:10521800040EB64503F07F033FF63DAE04F8013BAC
:105228000132DFE7B8F1000F03D099F90020002A16
:1052380017DB019BD3B11AF80B2004F8012B0022CD
:10524800029B18191044B0423FF625AE99F80000A9
:10525800009904F8010B2046039231F0F4FF039AF9
:1052680014440AF1010A09F10109C6E799F8002076
:1052780055F822300093019B009845F82230FCF73E
:105288009BFD421CDCE76FF00D0006E628AF04002A
:10529800821E050013AD040091AF0400A6AF040000
:1052A8002DE9F04F97B000AF89460446D7F880B093
:1052B800FA623B6258B9A94940F29933A84AA94809
:1052C80029F058FF40F29931A54829F04AFFCBF35D
:1052D800C00390F802A07B6141B9457800780AEBD9
:1052E800800020444D4517D8A0EB0409E378FB6102
:1052F800BAF1000F02D01BF0010F16D1FB6953BBA6
:10530800FB6A1BB1494620463A6A98474D462846EB
:105318005C37BD46BDE8F08F461C3046FCF74CFDB7
:105328000130304409F10109DCE7626823787A62C8
:10533800FA6A9900B96104EB8301002A40F00281FE
:105348000E464FF000084D4601EB0A094E454CD178
:1053580001EB0A0610E01BF0020FD1D023789A0067
:10536800BA61626804EB83017A62FA6A002A77D12B
:105378004D46904601EB0A061BF0050F0CBF0223B1
:105388000123FB62FB6906EB430A0BF00203BB62D5
:105398005645BCD016F8021B16F8013C54F8239069
:1053A800714B994502D3714B994536D37B69002BD4
:1053B80040D0786A29F09FFE00283BD0E9468AB0A1
:1053C8006A466B4B53617B6AC2E906314FF400733E
:1053D8001384684B42F8103F00234FF4125166487B
:1053E80003F034F8023DCD46D2E716F8013BF962E6
:1053F80054F82300FCF7E0FCD7F88430F96A013050
:105408004BB1D7F8883098453EBFD7F8843023F899
:10541800180008F10108054498E77B6923B1786A08
:1054280029F069FE0028C9D11BF0010F05D1FB6ADC
:10543800ED1AADE7BB6A002BAAD04846FCF7BCFCC6
:10544800D7F8843053B1D7F8883098453FBFD7F89C
:105458008420431C22F8183008F10108054497E716
:10546800BAF1000F74D01BF0040674D0D0460026A1
:1054780007F1480052463B61B96231F0E4FEB96A6F
:105488003B6901EB0A02BA62FA69F9695200FA60EB
:10549800BA6A02EB41023A610BF00202BA60BA6AD8
:1054A80039698A426AD162781BF0020F18BF00215D
:1054B8007A6208BF4FEA5801B2181BF0010FD2B246
:1054C80040F0E5801BF0040F14BF404600207B61CC
:1054D8006270A070E17020463A6AB969FB6A984721
:1054E800051EFFF614AF7B69414623707B6A3A6A52
:1054F8006370FB6984F802A0E37007F14800FB6A57
:105508009847B0F10008C0F2F680BB69A9EB0A0120
:10551800C91AFB683A6AC91AD7E90A0398470028E2
:10552800C0F2EB804FF0000BA84408EB000507F130
:10553800380AB345C0F0AD8000213A6A0846FB6AD4
:105548009847E4E656464FF0000807F1380091E71F
:105558005646D04695E7B04693E700BFBDAF040076
:1055680028AF040013AD040000750400BC45050015
:10557800D8AF04000400000178800400BA6A12F869
:10558800021B12F8015CBA6254F825005C4A90428A
:1055980002D35C4A904218D37A693AB1786A7B6040
:1055A80029F0A9FD7B6800287FF479AFBA68002A42
:1055B8004CD00F2E40D9544940F24D43534A5448D9
:1055C80029F0D8FD40F24D417EE67A693AB1786A11
:1055D8007B6029F090FD7B6800287FF460AF1BF0AA
:1055E800010F0BD00F2E27D9474940F24343474AB2
:1055F800474829F0BFFD40F2434165E61BF0040F20
:105608003FF44DAFB8F10F0F09D9424940F2464374
:105618003E4A3F4829F0AEFD40F2464154E608F1C3
:10562800280207F1300008F1010102EB000808F830
:10563800105C5FFA81F832E706F1280207F13000C2
:10564800711C161806F8205CCEB228E7B8F10F0FC7
:1056580009D930494FF48A632C4A2D4829F08AFD2C
:105668004FF48A6130E608F1280207F1300C08F19E
:105678000100944407F1580208F1020852FA80F038
:105688000CF8101C5FFA88F800F8105C07E7002097
:105698001DE71BF80A3054F8239087F83730D7F8FD
:1056A80084302BB3D7F888309B4521D2D7F8843083
:1056B80033F81B8001213A6AFB6A07F137009847E3
:1056C80000281ADB0544B8F1000F06D14846FCF75C
:1056D80073FB00F101081FFA88F8414648463A6A08
:1056E800FB6A9847002808DB05440BF1010B20E70B
:1056F8004FF00008DEE7454609E6054607E600BF25
:1057080000750400BC4505007BB0040028AF040008
:1057180013AD04009AB00400014B1860704700BF35
:105728002029002080B505460E461746984622F0E7
:10573800E5FC034631F0D6FE0446DFF818904246F1
:1057480049F8003039463046A84754F8090006F0B1
:10575800DFFA00BF0800000038B50D4604462022D5
:10576800002131F097FD0022EB68E361AB68A3618B
:105778002B6823626B68A26263622A6923B1591E8F
:10578800194208BF42F0010222610122002104F1FE
:105798002C0030F052FC48B1054906482F23064A30
:1057A80029F0E8FC2F21044829F0DBFC38BD00BFB4
:1057B80026F8040013AD0400CBB004002DE9F04F27
:1057C800002789B0CDE90123436A04468B42884605
:1057D800BA460597079754D300F11406EFF31185DD
:1057E800202383F31288BFF36F8F3046A94622F037
:1057F800F7FE58B988234D4A4D494E4829F0BAFC5E
:1058080031464D4829F0B6FC882163E0304622F045
:105818000BFF079A2AB13946204629F095FD002347
:10582800079306A9204629F0B2FC0699834641450C
:1058380030D32268236A204613F8221003EB820A29
:1058480021F0030103F822102168424629F0C3FC25
:10585800E3682060984218D04FF0000B304622F0E1
:10586800CDFE50B389F31188BFF36F8F059929B125
:10587800A2690AB12046904700230593BBF1000FA7
:10588800ACD1504609B0BDE8F08F236943F0080356
:105898002361E1E718B1204629F0B7FCDEE7DDE92E
:1058A8000132134339D0039130F03CFC0399A0BB7B
:1058B8009DBB304622F0A2FE78B940F231131B4A54
:1058C8001E491C4829F056FC31461D4829F052FC57
:1058D80040F23111154829F044FC85F31188BFF3D3
:1058E8006F8F04F12C00DDE9012320F0E7FA8346ED
:1058F800EFF31189202383F31288BFF36F8F3046AB
:1059080022F06EFE00283FF475AFBBFA8BFB3046E1
:1059180022F08AFE4FEA5B1BA0E7204607AB05AAE8
:10592800276829F091FC834698E700BFF1B004008E
:105938001EB1040013AD040033B1040049B10400E2
:1059480060B104002DE9F0410446C36908460E46DB
:10595800984704F114050746EFF31188202383F3D1
:105968001288BFF36F8F284622F03AFE68B9882361
:105978001A4A1B491B4829F0FDFB29461A4829F0F9
:10598800F9FB8821154829F0ECFB284622F04CFE4B
:1059980033783A4643F0010333706168204629F0B2
:1059A8001AFC6060204629F0EAFC284622F026FE10
:1059B80068B940F23113094A0C490A4829F0DAFB60
:1059C80029460B4829F0D6FB40F23111DAE788F373
:1059D8001188BFF36F8FBDE8F08100BFF1B00400FC
:1059E8001EB1040013AD040033B1040049B1040032
:1059F80060B104002DE9F843044600F11407EFF301
:105A08001188202383F31288BFF36F8F384622F062
:105A1800E7FD054668B98823344A3549354829F0F1
:105A2800A9FB3946344829F0A5FB88212F4829F0DD
:105A380098FB384622F0F8FD2369A26813F0080F96
:105A480002D163689A4200D9636A9B1A002B3FD03F
:105A5800216A11F8223001EB820913F003003AD0D1
:105A6800022803D151F82260B60805D1D8071FD4FF
:105A78004846E36998470646A1683246204629F019
:105A8800AAFB3146A060204629F0B3FB384622F035
:105A9800B5FD10BB40F23113144A1849154829F0D6
:105AA80069FB3946164829F065FB40F23111BDE71C
:105AB80043F0020301F82230E3694846A568984795
:105AC80029460246204629F086FB0025A060DDE72E
:105AD8001D46A946DAE70546FBE788F31188BFF3B8
:105AE8006F8F002D8BD14846BDE8F883F1B00400D4
:105AF8001EB1040013AD040033B1040049B1040021
:105B080060B104002DE9F0410446C36908460D461A
:105B1800984704F114060746EFF31188202383F30E
:105B28001288BFF36F8F304622F05AFD68B9882378
:105B3800274A2849284829F01DFB3146274829F0DB
:105B480019FB8821224829F00CFB304622F06CFD15
:105B58002B786FF300032B7023699B0705D5E26848
:105B6800236A03EB82039D4222D12B786FF3410312
:105B78002B70D4E90231994204D13A46204629F0E3
:105B88002AFBA0603946204629F033FB304622F034
:105B980035FD90B940F231130D4A11490E4829F0EC
:105BA800E9FA31460F4829F0E5FA40F23111C9E720
:105BB8002B6867F39F032B60E8E788F31188BFF32E
:105BC8006F8F04F12C00BDE8F04120F0F3B800BF5E
:105BD800F1B004001EB1040013AD040033B1040099
:105BE80049B1040060B1040070B5044600F1140521
:105BF800EFF31186202383F31288BFF36F8F2846B3
:105C080022F0EEFC68B988231A4A1B491B4829F080
:105C1800B1FA29461A4829F0ADFA8821154829F021
:105C2800A0FA284622F000FD2369A06813F0080FA7
:105C380002D16368984213D9646A241A284622F06C
:105C4800DDFC78B940F231130A4A0E490B4829F0B5
:105C580091FA29460C4829F08DFA40F23111DDE716
:105C68001C1AEBE786F31188BFF36F8F201E18BF4D
:105C7800012070BDF1B004001EB1040013AD040092
:105C880033B1040049B1040060B104002DE99F4814
:105C98000446EFF31185202383F31288BFF36F8F37
:105CA80022F09EFC58B988234F4A5049504829F0A1
:105CB80061FA21464F4829F05DFA88213CE04FF00F
:105CC800FF384FF0FF39204622F0AEFC4A4E04F16F
